:020000040800F2
:1000000000000120190F0008ED0C0008F30C000897
:10001000F90C0008FF0C0008050D000800000000A6
:100020000000000000000000000000000B0D0008B0
:10003000190D000800000000270D0008350D00080C
:10004000690F0008690F0008690F0008690F0008B0
:10005000690F0008690F0008690F0008690F0008A0
:10006000690F0008690F0008690F0008690F000890
:10007000690F0008690F0008690F0008690F000880
:10008000690F0008690F0008690F000800000000F0
:10009000000000000000000000000000690F0008E0
:1000A000690F0008690F0008690F0008690F000850
:1000B000690F0008690F0008690F0008690F000840
:1000C000690F0008690F0008690F0008690F000830
:1000D000690F0008410D0008690F000800000000CA
:1000E000690F0008690F0008690F00080000000090
:1000F000000000000000000000000000690F000880
:1001000000000000690F0008690F0008690F00086F
:1001100000000000000000000000000000000000DF
:10012000690F0008690F0008690F0008690F0008CF
:10013000690F00080000000000000000000000003F
:10014000000000000000000000000000550D000845
:10015000690F0008690F0008690F0008690F00089F
:10016000690F0008690F000800000000000000008F
:10017000000000000000000000000000000000007F
:1001800000000000690F00080000000000000000EF
:04019000690F0008EB
:1001A00010B5054C237833B9044B13B10448AFF3B1
:1001B00000800123237010BD80010020000000009A
:1001C000A4C2000808B5034B1BB103490348AFF3B1
:1001D000008008BD0000000084010020A4C20008C7
:1001E000034613F8012B002AFBD1181A0138704777
:1001F00010F8012B11F8013B012A28BF9A42F7D0D1
:10020000D01A70470000000000000000000000004D
:1002100001F0FF01102A2BDB10F0070F08D010F8B7
:10022000013B013A8B422DD010F0070F42B3F6D1BB
:10023000F0B441EA012141EA014122F007047FF0D4
:1002400000070023F0E80256083C85EA010586EA2B
:10025000010685FA47F5A3FA87F586FA47F6A5FA67
:1002600087F68EB9EED1F0BC01F0FF0102F0070273
:1002700032B110F8013B013A83EA010313B1F8D11E
:100280000020704701387047002D06BF35460338FF
:10029000073815F0010F07D1013015F4807F02BF38
:1002A000013015F4C03F0130F0BC0138704700BF89
:1002B0007BB972B90029BEBF00204FF0004106E0B3
:1002C00008BF00281CBF6FF000414FF0FF3000F066
:1002D000BBB9ADF1080C6DE904CE002909DB002B98
:1002E0001ADB00F04DF8DDF804E0DDE9022304B08C
:1002F0007047404261EB4101002B1BDB00F040F8EE
:10030000DDF804E0DDE9022304B0404261EB410185
:10031000524263EB43037047524263EB430300F0E6
:100320002FF8DDF804E0DDE9022304B0404261EB80
:1003300041017047524263EB430300F021F8DDF8BE
:1003400004E0DDE9022304B0524263EB430370474B
:1003500053B94AB9002908BF00281CBF4FF0FF312C
:100360004FF0FF3000F070B9ADF1080C6DE904CE2C
:1003700000F006F8DDF804E0DDE9022304B0704780
:100380002DE9F047089E0D4604460F46002B4AD142
:100390008A42944665D9B2FA82F343B102FA03FC69
:1003A000C3F120029F4020FA02F217439C404FEA1B
:1003B0001C4E1FFA8CF5B7FBFEF1220C0EFB1177D9
:1003C00042EA074201FB05F090420AD91CEB020207
:1003D00001F1FF3780F01C81904240F2198102390F
:1003E0006244121AA4B2B2FBFEF00EFB102244EAE1
:1003F000024400FB05F5A5420AD91CEB040400F1F8
:10040000FF3280F00781A54240F204816444023843
:1004100040EA0140641B00211EB1DC400023C6E914
:100420000043BDE8F0878B4208D9002E00F0ED8034
:100430000021C6E900050846BDE8F087B3FA83F15C
:10044000002949D1AB4202D3824200F2F880841ADB
:1004500065EB030201201746002EE2D0C6E90047F3
:10046000DFE702B9FFDEB2FA82F3002B40F09080A2
:100470008A1A4FEA1C471FFA8CFE0121B2FBF7F5DE
:1004800007FB1520220C42EA00420EFB05F09042C9
:1004900008D91CEB020205F1FF3802D2904200F2AB
:1004A000CB804546121AA4B2B2FBF7F007FB10222C
:1004B00044EA02440EFB00FEA64508D91CEB0404E6
:1004C00000F1FF3202D2A64500F2BB801046A4EB39
:1004D0000E0440EA05409FE7C1F120078B4022FA55
:1004E00007FC4CEA030C05FA01F420FA07F3FD407F
:1004F0004FEA1C492343B5FBF9F81FFA8CFE09FBB0
:1005000018551C0C44EA054408FB0EF5A54202FAF6
:1005100001F200FA01F00BD91CEB040408F1FF3AD8
:1005200080F08880A54240F28580A8F102086444EA
:10053000641B9DB2B4FBF9F309FB134445EA044480
:1005400003FB0EFEA64508D91CEB040403F1FF359E
:100550006CD2A6456AD9023B644443EA0843A3FB34
:100560000295A4EB0E04AC42C846AE4656D353D017
:1005700056B1B0EB080264EB0E0404FA07F7CA4068
:10058000CC401743C6E9007418460021BDE8F08747
:10059000C3F1200102FA03FC20FA01F225FA01F16D
:1005A0009D402A434FEA1C471FFA8CFEB1FBF7F02F
:1005B00007FB1015110C41EA054100FB0EF58D42B9
:1005C00004FA03F408D91CEB010100F1FF382FD223
:1005D0008D422DD902386144491B92B2B1FBF7F527
:1005E00007FB151142EA014205FB0EF1914208D9C1
:1005F0001CEB020205F1FF3816D2914214D9023DDC
:100600006244521A45EA004138E73146304608E76D
:100610003946E6E61046FBE64845A9D2B9EB0208A2
:1006200065EB0C0E013BA3E74546EAE72B4694E752
:100630004046D1E7D0467BE7023D624432E70846B8
:100640000AE76444023842E7704700BF80B582B0D1
:1006500000AF78607B681B7819467B6804331A46C4
:10066000054800F049FF0F220449002001F0D0F9AD
:1006700000BF0837BD4680BDBCC20008E8C2000804
:1006800080B582B000AF78607B681B7819467B68C4
:1006900002331A46064800F02FFF7B6816331946CE
:1006A000044800F029FF00BF0837BD4680BD00BFE9
:1006B000F8C200082CC3000880B586B000AF3B46E6
:1006C00000221A605A609A60DA601A615A61002347
:1006D0003B7001237B700A4B7B600A4BBB600A4B6B
:1006E000FB6000233B7400237B74084B7B613B461B
:1006F000184600F04FFF034618461837BD4680BD28
:100700003CC3000844C3000850C3000860C300088D
:1007100080B584B000AF00233B71084BBB6042F64C
:10072000F473BB810023BB733B1D184600F080FFB0
:10073000034618461037BD4680BD00BF64C300089D
:1007400080B584B000AF00233B71064BBB60002333
:100750003B733B1D184600F099FF034618461037BF
:10076000BD4680BD78C3000880B582B002AF01F0FD
:10077000D3FD00F093F800F073F900F047F900F0B2
:10078000F9F8394804F050FD00F0B0FE01F014FC17
:10079000364801F0ABFA034683F00103DBB2002BCD
:1007A00001D000F0BDF93249002000F031FFFFF721
:1007B00083FF0346002B1BD02E4800F09DFEFFF761
:1007C000A7FF0346002B0FD02B4800F095FEFFF744
:1007D000B7FF0346002B03D0284800F08DFE0AE047
:1007E000274800F089FE06E0264800F085FE02E07A
:1007F000254800F081FE0223009341F2920341F26A
:10080000E2622249002001F04BF9034683F0010324
:10081000DBB2002B01D000F083F91D49002000F06D
:100820005FFF00F0F1FC034683F00103DBB2002B15
:1008300001D000F075F901F0D5FD0246154B1B689B
:10084000D31AB3F57A7F0BD301F0CCFD0346114ADE
:10085000136000F037FC4FF400510F4802F033F9F9
:1008600000F0C8FFE7E700BF9C010020E401002082
:100870008106000884C30008A4C30008C4C300089C
:10088000D8C30008F0C3000808C4000824C4000846
:100890004D0600082C0200200008024080B594B0EC
:1008A00000AF07F120033022002118460AF06CFB4C
:1008B00007F10C0300221A605A609A60DA601A612C
:1008C0000023BB60294B1B6C284A43F08053136400
:1008D000264B1B6C03F08053BB60BB6800237B601E
:1008E000234B1B6823F44043214A43F40043136025
:1008F0001F4B1B6803F440437B607B6801233B6212
:100900004FF480337B620223BB634FF48003FB63AD
:1009100019233B644FF4A8737B640423BB6407234F
:10092000FB6407F12003184603F0D6FF0346002BB3
:1009300001D000F0F5F80F23FB6002233B61002398
:100940007B614FF48053BB610023FB6107F10C0313
:100950000221184604F038FA0346002B01D000F0BB
:10096000DFF800BF5037BD4680BD00BF00380240F1
:100970000070004080B586B000AF07F10803002288
:100980001A605A609A60DA603B4600221A605A6028
:100990001D4B4FF080421A601B4B53225A601A4B7A
:1009A00000229A60184B4FF0FF32DA60164B00229B
:1009B0001A61154B00229A61134804F0E5FB0346C7
:1009C000002B01D000F0ACF84FF48053BB6007F16E
:1009D000080319460C4804F081FC0346002B01D0A3
:1009E00000F09EF800233B6000237B603B461946E5
:1009F000054804F061FE0346002B01D000F090F89A
:100A000000BF1837BD4680BD9C01002080B500AFF7
:100A1000114B124A1A60104B4FF4E1325A600E4BE0
:100A200000229A600C4B0022DA600B4B00221A6104
:100A3000094B0C225A61084B00229A61064B002296
:100A4000DA61054804F0A6FE0346002B01D000F051
:100A500067F800BF80BD00BFE40100200010014026
:100A600080B58AB000AF07F1140300221A605A6003
:100A70009A60DA601A6100233B61274B1B6B264AA0
:100A800043F004031363244B1B6B03F004033B612B
:100A90003B690023FB60204B1B6B1F4A43F0800324
:100AA00013631D4B1B6B03F08003FB60FB6800238B
:100AB000BB60194B1B6B184A43F001031363164BC1
:100AC0001B6B03F00103BB60BB6800237B60124B10
:100AD0001B6B114A43F0020313630F4B1B6B03F0B4
:100AE00002037B607B6800224FF400510B4801F049
:100AF000D1FF4FF400537B610123BB610023FB61F5
:100B000000233B6207F114031946044801F03EFE3E
:100B100000BF2837BD4680BD0038024000080240B3
:100B200080B400AF72B600BFFEE7000080B483B0AF
:100B300000AF00237B60104B5B6C0F4A43F4804393
:100B400053640D4B5B6C03F480437B607B68002334
:100B50003B60094B1B6C084A43F080531364064BFF
:100B60001B6C03F080533B603B6800BF0C37BD46F5
:100B70005DF8047B704700BF0038024080B58AB042
:100B800000AF786007F1140300221A605A609A607F
:100B9000DA601A617B681B68194A93422CD10023E2
:100BA0003B61184B1B6B174A43F002031363154B51
:100BB0001B6B03F002033B613B694FF440737B61A5
:100BC0001223BB610023FB6103233B6204237B628E
:100BD00007F1140319460C4801F0D8FD0023FB600F
:100BE000084B1B6C074A43F400131364054B1B6C42
:100BF00003F40013FB60FB6800BF2837BD4680BDCF
:100C000000540040003802400004024080B485B027
:100C100000AF78607B681B68B3F1804F0DD1002373
:100C2000FB60094B1B6C084A43F001031364064B3D
:100C30001B6C03F00103FB60FB6800BF1437BD466B
:100C40005DF8047B704700BF0038024080B58AB071
:100C500000AF786007F1140300221A605A609A60AE
:100C6000DA601A617B681B681D4A934234D1002305
:100C70003B611C4B5B6C1B4A43F010035364194BE4
:100C80005B6C03F010033B613B690023FB60154B79
:100C90001B6B144A43F001031363124B1B6B03F0ED
:100CA0000103FB60FB684FF4C0637B610223BB61FF
:100CB0000023FB6103233B6207237B6207F11403DC
:100CC0001946094801F062FD00220021252001F0AB
:100CD00094FC252001F0ADFC00BF2837BD4680BD47
:100CE00000100140003802400000024080B400AF14
:100CF000FEE780B400AFFEE780B400AFFEE780B44B
:100D000000AFFEE780B400AFFEE780B400AF00BFE5
:100D1000BD465DF8047B704780B400AF00BFBD46A0
:100D20005DF8047B704780B400AF00BFBD465DF83E
:100D3000047B704780B500AF01F040FB00BF80BD71
:100D400080B500AF024804F025FE00BF80BD00BFA3
:100D5000E401002080B500AF024802F0B0FC00BF03
:100D600080BD00BF0C1A002080B400AF01231846DC
:100D7000BD465DF8047B704780B582B000AF7860F7
:100D800039600AF0DFF9034616221A604FF0FF338C
:100D900018460837BD4680BD80B582B000AF786088
:100DA0004FF0FF317868FFF7E7FFFEE780B586B0C8
:100DB00000AFF860B9607A6000237B610AE0AFF3AE
:100DC00000800146BB685A1CBA60CAB21A707B69BF
:100DD00001337B617A697B689A42F0DB7B68184655
:100DE0001837BD4680BD80B586B000AFF860B960E9
:100DF0007A6000237B6109E0BB685A1CBA601B78EB
:100E00001846AFF300807B6901337B617A697B68A8
:100E10009A42F1DB7B6818461837BD4680BD80B426
:100E200083B000AF78604FF0FF3318460C37BD46F3
:100E30005DF8047B704780B483B000AF78603960A0
:100E40003B684FF400525A60002318460C37BD46E9
:100E50005DF8047B704780B483B000AF78600123F5
:100E600018460C37BD465DF8047B704780B485B0EA
:100E700000AFF860B9607A60002318461437BD46A9
:100E80005DF8047B7047000080B586B000AF7860E5
:100E9000144A154BD31A7B617B693B61134B1B686A
:100EA000002B02D1114B124A1A60104B1A687B6852
:100EB00013443A699A4207D20AF044F903460C22D5
:100EC0001A604FF0FF3309E0084B1B68FB60074BCB
:100ED0001A687B681344054A1360FB681846183784
:100EE000BD4680BD0000012000040000300200204B
:100EF0006022002080B400AF064BD3F88830054A4A
:100F000043F47003C2F8883000BFBD465DF8047B2F
:100F1000704700BF00ED00E0DFF834D0FFF7EAFFD4
:100F20000C480D490D4A002302E0D458C450043344
:100F3000C4188C42F9D30A4A0A4C002301E013601A
:100F40000432A242FBD30AF003F9FFF70DFC70470D
:100F500000000120000000207C010020F0D80008E3
:100F6000800100205C220020FEE7000080B500AF79
:100F70003022002107480AF007F8064BE3221A70D6
:100F8000044B0B229A7030220249012000F040FDF0
:100F900000BF80BD3402002080B58AB002AF786007
:100FA00000237B6107F1180300221A609A80002356
:100FB000BB6007F10C0300221A601A717B685B6941
:100FC00003F26C727B681B69591C7B68DB6807F154
:100FD000140000930B461A4909F04CFC7B689A6890
:100FE0007B6859687B681B6807F1080000930B4613
:100FF000144909F03FFC00F0B7FF7B689B69124A77
:1010000052F823000023009310230022002101F056
:10101000B1F807F1140000230093102310220021DF
:1010200001F0A8F807F1080328220021184601F072
:1010300041F900F04FFF00BF2037BD4680BD00BF23
:1010400070C400087CC400080400002080B582B091
:1010500000AF78607B681B781946154800F04CFAA1
:1010600030220021134809F08FFF7B6804333022BF
:10107000194610480AF093F80E4B9B6A002B12D0C9
:101080000D4B01221A700D4B1B7883F00103DBB26C
:10109000002B02D0094B01221A7001F0A3F903467C
:1010A000074A136000E000BF0837BD4680BD00BF9F
:1010B00088C4000834020020710200207002002061
:1010C000740200202DE9B04F8AB000AF444B1B786A
:1010D00083F00103DBB2002B10D101F083F902464B
:1010E000404B1B68D21A404B1B689A4218D33F4BA7
:1010F0001B7883F00103DBB2002B11D001F072F9F1
:1011000002463B4B1B68D21A3A4B1B689A4207D3E4
:10111000FFF72CFF01F066F90346354A13605BE0E8
:10112000324B1B78002B2ED0304B00221A70324BE2
:101130009B6A1BBA304A93622F4BDB6A1BBA2E4A5A
:10114000D3622D4B9B6A00223B617A6145F2DC033E
:10115000DA179A469346D7E904120B4613EB0A04B2
:10116000134643EB0B05254BE318BB6045F1FF33FA
:10117000FB60D7E902232249C1E90023204809F096
:101180000BFF786223E0164B1B78002B23D001F075
:1011900029F90246134B1B68D31A1A4AA2FB0323F0
:1011A0009B09002298469146154BD3E9002318EB82
:1011B0000201396049EB03037B60D7E90034C7E9DA
:1011C000063407F11803184609F0E6FE7862786ADB
:1011D000FFF7E2FE00E000BF2837BD46BDE8B08F54
:1011E0007002002074020020200000207102002004
:1011F0007802002024000020340200208081557CE9
:1012000068020020D34D621080B582B002AF0C4955
:10121000012000F065FA0023009341F2F7037B22DE
:101220000849012000F03CFC034683F00103DBB2D7
:10123000002B01D0002300E001231846BD4680BDED
:101240004D100008ACC4000880B582B000AF7860D3
:10125000184B1B881A46184B1978184B9954154B84
:101260001B8801335A42C3F30903C2F3090258BF72
:1012700053429AB20F4B1A80114B1B680133104A2C
:101280001360104B1B6801330E4A13600C4B1B6834
:1012900040F20142934202D1094B01221A600A4BEB
:1012A0001B6801220449184604F04FFB00BF0837B1
:1012B000BD4680BD7E070020840700207C02002000
:1012C000800700208C0700208807002080B400AF32
:1012D000094B1B68002B05D0074B1B68002B01DD59
:1012E000012300E0002303F00103DBB21846BD46F2
:1012F0005DF8047B704700BF8007002080B582B096
:1013000000AF01F06FF878600CE001F06BF8024676
:101310007B68D31AB3F57A7F04D30A4B01221A7083
:1013200000230BE0FFF7D2FF034683F00103DBB29B
:10133000002BEAD1034B00221A700123184608370C
:10134000BD4680BD9007002080B500AF4FF480629D
:101350000021074809F018FE064B00221A80064BB0
:1013600000221A80054B00221A6000BF80BD00BF1A
:101370007C0200207C0700207E07002080070020E0
:1013800080B582B000AF78600B467B80054B186853
:101390007A884FF0FF33796804F04CFA00BF0837C1
:1013A000BD4680BD8807002080B582B000AF002315
:1013B000FB71FFF7A3FF0346002B17D00E4B1B88D2
:1013C0001A460E4B9B5CFB710B4B1B8801335A4238
:1013D000C3F30903C2F3090258BF53429AB2064B42
:1013E0001A80074B1B68013B054A1360FB791846BE
:1013F0000837BD4680BD00BF7C0700207C0200206E
:101400008007002080B582B000AF0023FB714FF44D
:1014100080720021244809F0B7FD21E0234B1B888E
:101420001A46234B9B5CBB71204B1B8801335A42ED
:10143000C3F30903C2F3090258BF53429AB21B4BCC
:101440001A801C4B1B68013B1A4A1360BB790D2B99
:101450000CD0FB795A1CFA711946134ABB795354C4
:10146000FFF74CFF0346002BD8D100E000BF124B22
:101470001B78002B12D10D4B1B8801335A42C3F34A
:101480000903C2F3090258BF53429AB2074B1A80AC
:10149000084B1B68013B074A136000E000BF024B8A
:1014A00018460837BD4680BD7C0600207C0700201A
:1014B0007C020020800700209007002080B582B0C9
:1014C00000AF7860FFF740FF064A7B681360054B6A
:1014D0001B6801220449184604F037FA00BF083798
:1014E000BD4680BD880700208407002080B500AF7E
:1014F00008F0B0FC00BF80BD0FB480B5A4B000AF51
:1015000007F19C037B6007F108037A68D7F898100D
:10151000184609F0A7FA0346C7F88C3007F108030C
:10152000184609F02FFB19E00123C7F88830174B44
:101530001B6800225A6200BF144B1B685B6AD7F815
:1015400088209A42F8D800BF114B1B780133DAB2D9
:101550000F4B1A700E4B1B78C82B0CD0D7F88C3061
:101560009AB207F108031146184608F031FD034608
:10157000012BD9D000E000BF054B00221A7000BF3C
:101580009037BD46BDE8804004B070479C01002004
:1015900091070020F0B5A3B006AF78600023FB6090
:1015A00007F1100360220021184609F0EDFC7B686A
:1015B0001B789C467B685B789E467B685B687A6894
:1015C00092687968C9687868007C05467868407CCC
:1015D00006467868406907F10C0405900496039567
:1015E000029101920093734662460849204609F031
:1015F00041F907F10C0341F28831184600F0EEF989
:10160000034618467437BD46F0BD00BFBCC4000891
:1016100080B582B000AF03463960FB71FB79396851
:10162000184600F071F800BF0837BD4680BD0000C5
:1016300090B59FB002AF78600023FB6007F1100304
:1016400060220021184609F09FFC7B681B781C462D
:101650007B685A687B681B8919467B689B7A07F10F
:101660000C000193009113462246074909F002F944
:1016700007F10C0341F28831184600F0AFF9034638
:1016800018467437BD4690BDF0C4000880B59EB0C2
:1016900002AF78600023FB6007F110036022002195
:1016A000184609F071FC7B681B7819467B685A68FC
:1016B0007B681B7A07F10C00009313460A46074922
:1016C00009F0D8F807F10C034FF4FA61184600F05E
:1016D00085F9034618467037BD4680BD0CC5000825
:1016E00080B483B000AF03463960FB71FB790549D4
:1016F0003A6841F8232000BF0C37BD465DF8047BF3
:10170000704700BF9407002080B483B000AF034649
:101710003960FB71FB7905493A6841F8232000BF25
:101720000C37BD465DF8047B704700BFA80700205A
:1017300080B584B000AF7860396000F053FEF86087
:1017400000F050FEF860FFF75DFEB860B968114820
:10175000FFF7D2FE1049B868FEF74AFD0346002B9A
:1017600001D1002311E000F03DFE0246FB68D31AD0
:101770003A689A4201D8002307E0B9687868FEF712
:1017800037FD0346002BDED1012318461037BD4636
:1017900080BD00BF70C5000874C5000880B582B068
:1017A00000AF786004220749786809F0D9FB034646
:1017B000002B0CBF01230023DBB218460837BD46BF
:1017C00080BD00BF7CC5000880B582B000AF7860E6
:1017D0000C220749786809F0C3FB0346002B0CBFB5
:1017E00001230023DBB218460837BD4680BD00BF89
:1017F00084C5000880B5AAB000AFFFF767FD0346B7
:10180000002B00F0CD8068220021684809F0BCFB65
:10181000FFF7F8FDC7F89800D7F89800FFF7BEFF6C
:101820000346002B48D0D7F8983005331B78303B5F
:10183000DAB25E4B1A70072387F8A7301EE05B4BC5
:101840005B881A46920013445B009AB297F8A7305F
:10185000D7F898100B441B789BB213449BB2303BD3
:101860009AB2524B5A8097F8A730013387F8A730C5
:1018700097F8A7300C2B01D1002392E097F8A730FE
:10188000D7F8982013441B783A2BD8D197F8A73073
:101890000133D7F898201344444A528819464448E3
:1018A00009F07DFC414B1B781A46424B53F822301D
:1018B0003E489847012374E0D7F89800FFF784FF6B
:1018C0000346002B6AD03B4696220021184609F0B9
:1018D0005BFBD7F898300D331B78303BDBB23B70A5
:1018E0001023C7F8A0300023C7F89C3013E0D7F8C6
:1018F000A030D7F898201A44D7F89C30591CC7F864
:101900009C101278A8333B4403F8A62CD7F8A030DB
:101910000133C7F8A030D7F8A030D7F89820134487
:101920001B78222BE3D1D7F8A0300233C7F8A030C0
:1019300015E07B781A46920013445B00DAB2D7F8C0
:10194000A030D7F898100B441B781344DBB2303B1F
:10195000DBB27B70D7F8A0300133C7F8A030D7F8DE
:10196000A030D7F8982013441B782C2BE1D1D7F85E
:10197000A0300133D7F89820D1187B781A463B461F
:101980001633184609F00BFC3B781A460A4B53F8FD
:1019900022303A4610469847012302E0002300E037
:1019A00000231846A837BD4680BD00BFBC070020F5
:1019B000C007002094070020A807002080B582B04F
:1019C00000AF78600B467B807B8819467868FFF70C
:1019D000D7FC00BF0837BD4680BD000080B582B08F
:1019E00000AF786039607868FEF7FAFB03469BB277
:1019F00019467868FFF7E2FF39680448FFF798FE58
:101A0000034618460837BD4680BD00BF94C5000890
:101A100080B588B000AF03463960FB711346BB80C8
:101A20000023BB6007F10C0300221A605A609A6021
:101A3000DA60FA79BB8807F10800174908F01AFF45
:101A40000346BB77BB7F9AB207F1080311461846DD
:101A5000FFF7B4FF0023FB7704E0FFF7D3FCFB7F25
:101A60000133FB77FB7F022BF7D9FFF79DFC034681
:101A70003E2B01D000230AE0BB8819463868FFF7E7
:101A80009DFF4FF47A710548FFF752FE0346184652
:101A90002037BD4680BD00BF98C50008ACC5000812
:101AA00090B599B004AFB96011461A460346FB736E
:101AB0000B46BB811346FB8000233B6107F11403F7
:101AC0003C220021184609F05FFAFC7BBB89FA88AA
:101AD00097F8601007F11000029101920093BB6823
:101AE0002246074908F0C6FE07F110034FF47A7149
:101AF0001846FFF773FF034618465437BD4690BD9E
:101B0000B4C5000880B58EB000AF00233B603B1D1C
:101B10002E220021184609F037FA3846104B114A98
:101B2000114908F0A7FE7863FFF70EFC4FF47A71B5
:101B30000E48FFF753FF7B6B9AB23B46114618469F
:101B4000FFF73CFF07490A48FFF7D6FC41F288310E
:101B50000848FFF7EDFD034618463837BD4680BDFF
:101B6000DCC50008F0C5000800C6000818C600085B
:101B700028C6000894C5000880B584B000AF1F4B8C
:101B80007B607868FEF72CFB03469BB219467868A9
:101B9000FFF714FFFFF736FC386006221849386853
:101BA00009F0DEF90346002B25D10E23FB6000234C
:101BB000BB600F220021134809F0E6F90BE0FB6837
:101BC0003A681A44BB68591CB96011780D4AD1545F
:101BD000FB680133FB60FB683A6813441B78222BD7
:101BE000EDD14FF47A710848FFF7A2FD034683F068
:101BF0000103DBB2002B1037BD4680BD40C6000894
:101C00004CC600082408002094C5000880B584B0A4
:101C100000AF234B7B607868FEF7E2FA03469BB285
:101C200019467868FFF7CAFEFFF7ECFB386006221A
:101C30001C49386809F094F90346002B2CD108237D
:101C4000FB600023BB6014220021174809F09CF9B7
:101C50000BE0FB683A681A44BB68591CB9601178FC
:101C6000114AD154FB680133FB60FB683A681344A6
:101C70001B78222BEDD14FF47A710C48FFF758FDF9
:101C8000034683F00103DBB2002B04D10649084868
:101C9000FFF732FC00E000BF1037BD4680BD00BF3B
:101CA00054C6000860C600083408002094C5000827
:101CB00068C6000880B582B000AF0A4B7B607868C8
:101CC000FEF78EFA03469BB219467868FFF776FE58
:101CD0004FF47A610448FFF72BFD03461846083796
:101CE000BD4680BD80C600088CC6000880B584B0A3
:101CF00002AF78607868FFF7E1FBFFF7DBFF034690
:101D000083F00103DBB2002B09D0FFF7FBFE034693
:101D100083F00103DBB2002B01D000233AE04FF443
:101D20007A711E48FFF75AFEFFF770FFFFF724FF96
:101D300000F01AF901230093102300220021184813
:101D400000F018FA002300931023102200211548F8
:101D500000F010FA012300931023202200211248E2
:101D600000F008FA002300931023302200210F48CE
:101D700000F000FA00F0AEF84FF47A710C48FFF76B
:101D80002DFE034683F00103DBB2002B01D00023BC
:101D900000E0012318460837BD4680BD98C60008FC
:101DA000A0C6000834080020ACC6000824080020A3
:101DB000B8C6000880B400AF72B600BFFEE70000EE
:101DC00080B500AF124B134A1A60114B124A5A6089
:101DD0000F4B00229A600E4B0022DA600C4B4FF43E
:101DE00080421A610A4B00225A61094B00229A6113
:101DF000074B0022DA61064B00221A62044800F009
:101E00007DFE0346002B01D0FFF7D4FF00BF80BD4D
:101E1000D40C002000540040801A060080B586B023
:101E200002AF0346FB710023BB8100233B73FB79A8
:101E30007B7307F10C024FF0FF33009302237821EC
:101E4000034800F09FFF00BF1037BD4680BD00BFB4
:101E5000D40C002080B582B000AF03460A46FB7167
:101E60001346BB71FB790233FB71BB79DB08DBB234
:101E7000503BDBB21846FFF7D1FFFB7903F00F03AD
:101E8000DBB21846FFF7CAFFFB791B09DBB2103340
:101E9000DBB21846FFF7C2FF00BF0837BD4680BD62
:101EA00080B483B000AF03460A46FB711346BB7192
:101EB000064AFB791370BB79DB08DAB2044B1A705F
:101EC00000BF0C37BD465DF8047B70474D0C002009
:101ED0004C0C002080B584B002AF154B40221A7024
:101EE0000023FB711BE0FB79DB01124A13448022C3
:101EF0001946114809F053F9FB79DB00DBB21946AA
:101F00000020FFF7A7FF4FF0FF3300938123084A1B
:101F100078210A4800F036FFFB790133FB71FB7929
:101F2000072BE0D900BF00BF0837BD4680BD00BF0A
:101F3000500C00204C080020510C0020D40C002034
:101F400080B500AF2020FFF769FF0220FFF766FF92
:101F500000BF80BD80B500AF8D20FFF75FFF14206C
:101F6000FFF75CFF00BF80BD80B483B000AF0023EB
:101F7000FB7114E00023BB710AE0FA79BB790D49CB
:101F8000D2010A44134400221A70BB790133BB7199
:101F900097F90630002BF0DAFB790133FB71FB79FE
:101FA000072BE7D900BF00BF0C37BD465DF8047BA7
:101FB000704700BF4C08002080B500AFFFF700FF5E
:101FC000AF20FFF72BFFA620FFF728FFA120FFF788
:101FD00025FFC820FFF722FFFFF7B2FFFFF7BAFF88
:101FE000FFF7C2FFFFF776FF00BF80BD90B585B059
:101FF00000AF0446084611461A462346FB710346C5
:10200000BB710B467B7113463B713B79062B2DD17F
:102010000023BB7326E0FB79A3F1200213465B008B
:1020200013445B001A46BB7B13444C4AD35CFB73DE
:1020300097F82030002B02D0FB7BDB43FB73484B2F
:102040001B781846474B1B785A1CD1B2454A117071
:102050001946454AC30113440B44FA7B1A70BB7BF3
:102060000133BB73BB7B052BD5D974E03B79102BB7
:1020700070D13E4B1B78DB00DAB2BB791344DBB284
:102080007A7911461846FFF70BFF00237B7321E096
:10209000FB79203B1A017B7B1344354AD35CFB73ED
:1020A00097F82030002B02D0FB7BDB43FB732C4BDB
:1020B0001B7818462B4B1B785A1CD1B2294A117039
:1020C0001946294AC30113440B44FA7B1A707B7BDF
:1020D00001337B737B7B072BDAD9244B1B78DB0026
:1020E000DAB2BB791344DAB27B790833DBB2194632
:1020F0001046FFF7D5FE08233B7321E0FB79203B18
:102100001A013B7B13441A4AD35CFB7397F82030C7
:10211000002B02D0FB7BDB43FB73114B1B78184673
:10212000104B1B785A1CD1B20E4A117019460E4A38
:10213000C30113440B44FA7B1A703B7B01333B739E
:102140003B7B0F2BDAD9094B1B780133DAB2074BF3
:102150001A7000E000BF1437BD4690BD28C70008C4
:102160004C0C00204D0C00204C080020480800209A
:102170006CC9000890B587B002AF78600846114678
:102180001A460346FB700B46BB7013467B7078689B
:10219000FEF726F80346BB73134B00221A70BA7879
:1021A000FB7811461846FFF77BFE0023FB730FE018
:1021B000FB7B7A68134418787C78BA78F97897F8BA
:1021C000203000932346FFF711FFFB7B0133FB73A5
:1021D000FA7BBB7B9A42EBD3034B00221A7000BF01
:1021E0001437BD4690BD00BF4808002080B584B0BC
:1021F00000AF0346FB710B46BB7113467B71002396
:10220000FB7340E00023BB7337E0BA79FB7B1344D8
:10221000DAB2234B1B781B01DBB21344D8B2BB7B71
:10222000DB00DAB27B791344DBB21946FFF738FEE4
:10223000FB79A3F1300213465B0013441B011846DF
:10224000B97BFA7B13465B0013440B440344154AE5
:10225000D35C7B73144B1B781846144B1B785A1CA9
:10226000D1B2124A11701946114AC30113440B44EA
:102270007A7B1A70BB7B0133BB73BB7B022BC4D947
:10228000FB7B0133FB73FB7B0F2BBBD9044B1B7810
:102290000133DAB2024B1A7000BF1037BD4680BD61
:1022A000490800205CCF00084C0C00204D0C002099
:1022B0004C08002080B584B000AF78600B46FB70FE
:1022C0001346BB707868FDF78BFF0346BB73114B59
:1022D00000221A70BA78FB7811461846FFF7E0FD25
:1022E0000023FB730BE0FB7B7A6813441B78BA78FE
:1022F000F9781846FFF77AFFFB7B0133FB73FA7B13
:10230000BB7B9A42EFD3034B00221A7000BF1037F9
:10231000BD4680BD4908002080B500AF0E4B1B684C
:102320000D4A43F4007313600B4B1B680A4A43F4D5
:1023300080631360084B1B68074A43F48073136083
:10234000032000F04FF90F2000F008F8FEF7EEFB35
:102350000023184680BD00BF003C024080B582B01B
:1023600000AF7860124B1A68124B1B7819464FF475
:102370007A73B3FBF1F3B2FBF3F3184600F067F99D
:102380000346002B01D001230EE07B680F2B0AD8F7
:10239000002279684FF0FF3000F02FF9064A7B6881
:1023A0001360002300E0012318460837BD4680BDB6
:1023B000000000202C0000202800002080B400AF86
:1023C000064B1B781A46064B1B681344044A1360DD
:1023D00000BFBD465DF8047B704700BF2C000020A5
:1023E000280D002080B400AF034B1B681846BD4683
:1023F0005DF8047B704700BF280D002080B584B0D5
:1024000000AF7860FFF7EEFFB8607B68FB60FB68A9
:10241000B3F1FF3F05D00A4B1B781A46FB68134403
:10242000FB6000BFFFF7DEFF0246BB68D31AFA6805
:102430009A42F7D800BF00BF1037BD4680BD00BF2D
:102440002C00002080B485B000AF78607B6803F07A
:102450000703FB600C4BDB68BB60BA684FF6FF03F9
:102460001340BB60FB681A02BB68134343F0BF63B1
:1024700043F40033BB60044ABB68D36000BF143729
:10248000BD465DF8047B704700ED00E080B400AF0E
:10249000044BDB681B0A03F007031846BD465DF8D2
:1024A000047B704700ED00E080B483B000AF0346CA
:1024B000FB7197F90730002B0BDBFB7903F01F0250
:1024C000074997F907305B09012000FA02F241F849
:1024D000232000BF0C37BD465DF8047B704700BF6A
:1024E00000E100E080B483B000AF03463960FB71C7
:1024F00097F90730002B0ADB3B68DAB20C4997F9F1
:1025000007301201D2B20B4483F800230AE03B6883
:10251000DAB20849FB7903F00F03043B1201D2B28F
:102520000B441A7600BF0C37BD465DF8047B70473C
:1025300000E100E000ED00E080B489B000AFF86099
:10254000B9607A60FB6803F00703FB61FB69C3F1C4
:102550000703042B28BF0423BB61FB690433062B4C
:1025600002D9FB69033B00E000237B614FF0FF329F
:10257000BB6902FA03F3DA43BB681A407B699A40ED
:102580004FF0FF317B6901FA03F3D9437B680B40BD
:10259000134318462437BD465DF8047B704700009E
:1025A00080B582B000AF78607B68013BB3F1807F7B
:1025B00001D301230FE00A4A7B68013B53600F21DE
:1025C0004FF0FF30FFF78EFF054B00229A60044B5F
:1025D00007221A60002318460837BD4680BD00BF99
:1025E00010E000E080B582B000AF78607868FFF757
:1025F00029FF00BF0837BD4680BD80B586B000AF5B
:102600000346B9607A60FB7300237B61FFF73EFFEE
:1026100078617A68B9687869FFF78EFF024697F9A2
:102620000F3011461846FFF75DFF00BF1837BD4653
:1026300080BD80B582B000AF0346FB7197F90730CB
:102640001846FFF731FF00BF0837BD4680BD80B593
:1026500082B000AF78607868FFF7A2FF03461846A3
:102660000837BD4680BD80B584B000AF78607B6818
:102670009B6DFB60FFF7B6FEB8607B6893F8353062
:10268000DBB2022B08D07B6880225A657B6800226F
:1026900083F83420012352E07B681B681A687B684A
:1026A0001B6822F016021A607B681B685A697B68F7
:1026B0001B6822F080025A617B681B6C002B03D1DF
:1026C0007B689B6C002B07D07B681B681A687B6853
:1026D0001B6822F008021A607B681B681A687B6816
:1026E0001B6822F001021A6013E0FFF77BFE02462E
:1026F000BB68D31A052B0CD97B6820225A657B68EE
:10270000032283F835207B68002283F834200323DA
:1027100015E07B681B681B6803F00103002BE4D104
:102720007B68DB6D3F229A40FB689A607B680122E0
:1027300083F835207B68002283F834200023184674
:102740001037BD4680BD80B483B000AF78607B6831
:1027500093F83530DBB2022B04D07B6880225A65B7
:1027600001230CE07B68052283F835207B681B6819
:102770001A687B681B6822F001021A600023184661
:102780000C37BD465DF8047B7047000080B489B00B
:1027900000AF7860396000237B6100233B61002338
:1027A000BB610023FB6159E10122FB6902FA03F3DB
:1027B0007B613B681B687A6913403B613A697B69BE
:1027C0009A4240F048813B685B6803F00303012BA9
:1027D00005D03B685B6803F00303022B30D17B68B4
:1027E0009B68BB61FB695B00032202FA03F3DB43D6
:1027F000BA691340BB613B68DA68FB695B0002FAA7
:1028000003F3BA691343BB617B68BA699A607B685A
:102810005B68BB610122FB6902FA03F3DB43BA691F
:102820001340BB613B685B681B0903F00102FB6955
:1028300002FA03F3BA691343BB617B68BA695A6051
:102840003B685B6803F00303032B17D07B68DB68EE
:10285000BB61FB695B00032202FA03F3DB43BA6945
:102860001340BB613B689A68FB695B0002FA03F3A3
:10287000BA691343BB617B68BA69DA603B685B681D
:1028800003F00303022B23D1FB69DA087B680832CB
:1028900053F82230BB61FB6903F007039B000F2252
:1028A00002FA03F3DB43BA691340BB613B681A6960
:1028B000FB6903F007039B0002FA03F3BA691343B1
:1028C000BB61FB69DA087B680832B96943F82210FA
:1028D0007B681B68BB61FB695B00032202FA03F3A0
:1028E000DB43BA691340BB613B685B6803F00302DA
:1028F000FB695B0002FA03F3BA691343BB617B68AF
:10290000BA691A603B685B6803F44033002B00F03F
:10291000A2800023FB60574B5B6C564A43F4804314
:102920005364544B5B6C03F48043FB60FB68524A76
:10293000FB699B08023352F82330BB61FB6903F04B
:1029400003039B000F2202FA03F3DB43BA6913402F
:10295000BB617B68494A934219D07B68484A9342DD
:1029600013D07B68474A93420DD07B68464A934216
:1029700007D07B68454A934201D1042308E007232E
:1029800006E0032304E0022302E0012300E0002329
:10299000FA6902F0030292009340BA691343BB61E3
:1029A0003549FB699B080233BA6941F82320384B4B
:1029B0009B68BB613B69DB43BA691340BB613B6801
:1029C0005B6803F48013002B03D0BA693B6913439F
:1029D000BB612F4ABB6993602D4BDB68BB613B69D0
:1029E000DB43BA691340BB613B685B6803F40013C7
:1029F000002B03D0BA693B691343BB61244ABB690E
:102A0000D360234B5B68BB613B69DB43BA6913400E
:102A1000BB613B685B6803F40033002B03D0BA69E9
:102A20003B691343BB611A4ABB695360184B1B686F
:102A3000BB613B69DB43BA691340BB613B685B68C0
:102A400003F48033002B03D0BA693B691343BB61A5
:102A50000F4ABB691360FB690133FB61FB690F2BF4
:102A60007FF6A2AE00BF00BF2437BD465DF8047BF1
:102A7000704700BF003802400038014000000240AB
:102A80000004024000080240000C02400010024016
:102A9000003C014080B483B000AF78600B467B807F
:102AA00013467B707B78002B03D07A887B689A6111
:102AB00003E07B881A047B689A6100BF0C37BD462F
:102AC0005DF8047B704780B485B000AF78600B463A
:102AD0007B807B685B69FB607A88FB6813401A0423
:102AE000FB68D9437B880B401A437B689A6100BF1F
:102AF0001437BD465DF8047B7047000080B584B094
:102B000000AF78607B68002B01D101232BE17B684B
:102B100093F83D30DBB2002B06D17B68002283F8AE
:102B20003C207868FEF72AF87B68242283F83D2051
:102B30007B681B681A687B681B6822F001021A60B8
:102B40007B681B681A687B681B6842F400421A6045
:102B50007B681B681A687B681B6822F400421A6055
:102B600002F0EAFAF8607B685B68814A934207D812
:102B7000FB68804A934294BF01230023DBB206E046
:102B8000FB687D4A934294BF01230023DBB2002BF4
:102B900001D00123E7E0FB68784AA2FB03239B0CEA
:102BA000BB607B681B685B6823F03F017B681B6828
:102BB000BA680A435A607B681B681B6A23F03F01AE
:102BC0007B685B686A4A934202D8BB68013309E0BC
:102BD000BB684FF4967202FB03F3694AA2FB03231E
:102BE0009B0901337A6812680B4313627B681B6888
:102BF000DB6923F44F4222F0FF027B685B685C498B
:102C00008B4219D8FB68591E7B685B685B00B1FB7F
:102C1000F3F3591C40F6FC730B40002B0AD0FB6801
:102C2000591E7B685B685B00B1FBF3F30133C3F3B0
:102C30000B0351E004234FE07B689B68002B11D10C
:102C4000FB68581E7B6859680B465B000B44B0FB61
:102C5000F3F30133C3F30B03002B0CBF0123002359
:102C6000DBB212E0FB68581E7B6859680B469B007C
:102C70000B4499000B44B0FBF3F30133C3F30B0394
:102C8000002B0CBF01230023DBB2002B01D001235A
:102C900022E07B689B68002B0ED1FB68581E7B6886
:102CA00059680B465B000B44B0FBF3F30133C3F3ED
:102CB0000B0343F400430FE0FB68581E7B68596820
:102CC0000B469B000B4499000B44B0FBF3F301331C
:102CD000C3F30B0343F44043796809681343CB61A2
:102CE0007B681B681B6823F0C0017B68DA697B681E
:102CF0001B6A1A437B681B680A431A607B681B685F
:102D00009B6823F4034323F0FF037A6811697A6810
:102D1000D26811437A6812680B4393607B681B6822
:102D2000DB6823F0FF017B685A697B689B691A4363
:102D30007B681B680A43DA607B681B681A687B68DB
:102D40001B6842F001021A607B6800221A647B68EB
:102D5000202283F83D207B6800221A637B680022D2
:102D600083F83E20002318461037BD4680BD00BFC3
:102D7000A08601007F841E00FF083D0083DE1B4308
:102D8000D34D621080B588B002AFF8607A601A4601
:102D90000B467B8113463B81FFF724FB7861FB6880
:102DA00093F83D30DBB2202B40F0E0807B6900934C
:102DB000192301227049F86800F064F90346002BDA
:102DC00001D00223D3E0FB6893F83C30012B01D102
:102DD0000223CCE0FB68012283F83C20FB681B68DF
:102DE0001B6803F00103012B07D0FB681B681A68FE
:102DF000FB681B6842F001021A60FB681B681A68D6
:102E0000FB681B6822F400621A60FB68212283F8C9
:102E10003D20FB68102283F83E20FB6800221A64E4
:102E2000FB687A685A62FB683A895A85FB685B8D51
:102E30009AB2FB681A85FB68504ADA6279897B6925
:102E40003A6AF86800F09CF80346002B01D0012391
:102E50008DE000233B61FB681B685B693B61FB689D
:102E60001B689B693B613B6966E07A69396AF8686F
:102E700000F022FA0346002B0DD0FB681B6C042BDC
:102E800007D1FB681B681A68FB681B6842F4007274
:102E90001A6001236BE0FB685B6A1A78FB681B68A9
:102EA0001A61FB685B6A5A1CFB685A62FB685B8D9F
:102EB0009BB2013B9AB2FB685A85FB681B8D013BB4
:102EC0009AB2FB681A85FB681B685B6903F0040310
:102ED000042B1BD1FB681B8D002B17D0FB685B6A92
:102EE0001A78FB681B681A61FB685B6A5A1CFB68EE
:102EF0005A62FB685B8D9BB2013B9AB2FB685A85B4
:102F0000FB681B8D013B9AB2FB681A857A69396AA6
:102F1000F86800F019FA0346002B0DD0FB681B6C13
:102F2000042B07D1FB681B681A68FB681B6842F416
:102F300000721A6001231AE0FB681B8D002B94D1EC
:102F4000FB681B681A68FB681B6842F400721A6011
:102F5000FB68202283F83D20FB68002283F83E2096
:102F6000FB68002283F83C20002300E0022318467F
:102F70001837BD4680BD00BF020010000000FFFFF3
:102F800080B588B002AFF8607A603B600B467B8109
:102F9000FB68DB6A7B617B69082B06D07B69012BB0
:102FA00003D07B6913F5803F08D1FB681B681A6862
:102FB000FB681B6842F480721A600BE0FB681B6BB5
:102FC000122B07D1FB681B681A68FB681B6842F468
:102FD00080721A603B6800937B6800224FF00111F9
:102FE000F86800F04FF80346002B0DD0FB681B6813
:102FF0001B6803F48073B3F5807F03D1FB684FF443
:1030000000721A64032335E0FB681B69B3F5804F37
:1030100008D17B89DBB21A46FB681B6802F0FE020E
:103020001A611BE07B89DB11DBB203F00603DBB224
:1030300063F00F03DAB2FB681B681A613B687A68B9
:103040000E49F86800F098F80346002B01D00123E0
:1030500010E07B89DAB2FB681B681A613B687A680A
:103060000749F86800F088F80346002B01D00123D7
:1030700000E0002318461837BD4680BD0800010057
:103080000200010080B584B000AFF860B9603B6019
:103090001346FB7148E03B68B3F1FF3F44D0FFF7B4
:1030A000A1F90246BB69D31A3A689A4202D33B6837
:1030B000002B39D1BB681B0CDBB2012B0DD1FB6897
:1030C0001B685B69DA43BB6813409BB2002B0CBFE3
:1030D00001230023DBB21A460CE0FB681B689B69E6
:1030E000DA43BB6813409BB2002B0CBF01230023C3
:1030F000DBB21A46FB799A4216D1FB6800221A63AA
:10310000FB68202283F83D20FB68002283F83E20E4
:10311000FB681B6C43F02002FB681A64FB6800220A
:1031200083F83C20012323E0BB681B0CDBB2012B9E
:103130000DD1FB681B685B69DA43BB6813409BB227
:10314000002B0CBF01230023DBB21A460CE0FB6806
:103150001B689B69DA43BB6813409BB2002B0CBF12
:1031600001230023DBB21A46FB799A4293D0002355
:1031700018461037BD4680BD80B584B000AFF860FA
:10318000B9607A603B6071E0FB681B685B6903F4BF
:103190008063B3F5806F23D1FB681B681A68FB68F6
:1031A0001B6842F400721A60FB681B686FF480624F
:1031B0005A61FB6800221A63FB68202283F83D20D5
:1031C000FB68002283F83E20FB681B6C43F004027E
:1031D000FB681A64FB68002283F83C20012367E047
:1031E0007B68B3F1FF3F41D0FFF7FCF802463B6834
:1031F000D31A7A689A4202D37B68002B36D1BB6817
:103200001B0CDBB2012B0CD1FB681B685B69DA433A
:10321000BB6813409BB2002B14BF01230023DBB219
:103220000BE0FB681B689B69DA43BB6813409BB2E9
:10323000002B14BF01230023DBB2002B16D0FB6848
:1032400000221A63FB68202283F83D20FB680022DD
:1032500083F83E20FB681B6C43F02002FB681A6475
:10326000FB68002283F83C20012321E0BB681B0C93
:10327000DBB2012B0CD1FB681B685B69DA43BB68CE
:1032800013409BB2002B14BF01230023DBB20BE0E1
:10329000FB681B689B69DA43BB6813409BB2002B39
:1032A00014BF01230023DBB2002B7FF46DAF00239A
:1032B00018461037BD4680BD80B584B000AFF860B9
:1032C000B9607A6034E0F86800F086F80346002BB5
:1032D00001D0012334E0BB68B3F1FF3F28D0FFF7F2
:1032E00081F802467B68D31ABA689A4202D3BB6857
:1032F000002B1DD1FB681B685B6903F08003802BEA
:1033000016D0FB6800221A63FB68202283F83D2058
:10331000FB68002283F83E20FB681B6C43F0200210
:10332000FB681A64FB68002283F83C20012307E055
:10333000FB681B685B6903F08003802BC3D100230B
:1033400018461037BD4680BD80B584B000AFF86028
:10335000B9607A6034E0F86800F03EF80346002B6C
:1033600001D0012334E0BB68B3F1FF3F28D0FFF761
:1033700039F802467B68D31ABA689A4202D3BB680E
:10338000002B1DD1FB681B685B6903F00403042B51
:1033900016D0FB6800221A63FB68202283F83D20C8
:1033A000FB68002283F83E20FB681B6C43F0200280
:1033B000FB681A64FB68002283F83C20012307E0C5
:1033C000FB681B685B6903F00403042BC3D1002373
:1033D00018461037BD4680BD80B483B000AF78601A
:1033E0007B681B685B6903F48063B3F5806F1BD156
:1033F0007B681B686FF480625A617B6800221A63E5
:103400007B68202283F83D207B68002283F83E20E1
:103410007B681B6C43F004027B681A647B680022A3
:1034200083F83C20012300E0002318460C37BD46FA
:103430005DF8047B704780B586B002AF78607B682A
:10344000002B01D1012301E17B681B68BB607B6815
:1034500093F89534DBB2002B06D17B68002283F809
:103460009424786806F0FCFE7B68032283F8952498
:10347000BB68B3F1A04F02D17B6800229A717B68D0
:103480001B68184603F0F3FA7B6818687B681A7C9F
:103490008DF8002004330ECB03F0D2F90346002B45
:1034A00005D07B68022283F895240123CEE07B6857
:1034B0001B680021184603F0EBFA0346002B05D0E9
:1034C0007B68022283F895240123BFE00023FB736D
:1034D0004AE0FA7B79681346DB0013449B000B44F7
:1034E000153301221A70FA7B79681346DB00134406
:1034F0009B000B441433FA7B1A70FA7BFB7B98B267
:1035000079681346DB0013449B000B442E330246BC
:103510001A80FA7B79681346DB0013449B000B4446
:10352000183300221A70FA7B79681346DB001344C3
:103530009B000B441C3300221A60FA7B7968134607
:10354000DB0013449B000B44203300221A60FA7BFB
:1035500079681346DB0013449B000B44243300229C
:103560001A60FB7B0133FB737B681B79FA7B9A4201
:10357000AFD30023FB7344E0FA7B79681346DB008A
:1035800013449B000B4403F2552300221A70FA7B6C
:1035900079681346DB0013449B000B4403F5157355
:1035A000FA7B1A70FA7B79681346DB0013449B00A0
:1035B0000B4403F5167300221A70FA7B79681346E0
:1035C000DB0013449B000B4403F5177300221A60C1
:1035D000FA7B79681346DB0013449B000B4403F528
:1035E000187300221A60FA7B79681346DB001344D3
:1035F0009B000B4403F5197300221A60FB7B013317
:10360000FB737B681B79FA7B9A42B5D37B68186899
:103610007B681A7C8DF8002004330ECB03F084FA0B
:103620000346002B05D07B68022283F895240123F2
:103630000CE07B6800225A747B68012283F8952491
:103640007B681B68184604F0C8FA00231846103738
:10365000BD4680BD80B584B000AF78607B681B68D4
:10366000FB607B6893F89434012B01D1022322E0A4
:103670007B68012283F89424FB68DB6803F0400335
:10368000002B09D07B685B7B012B05D1FB689B6B12
:1036900043F48032FB689A637B681B68184603F02A
:1036A000D5F97B681B68184604F076FA7B6800221F
:1036B00083F89424002318461037BD4680BD90B58A
:1036C0008DB000AF78607B681B683B623B6AFB6132
:1036D0007B681B68184604F034FB0346002B40F05F
:1036E0008C847B681B68184604F098FA0346002B0C
:1036F00000F08284FB6903F500639B681B0AC3F337
:103700000D027B68C3F8D4247B681B68184604F05C
:1037100085FA034603F00203022B07D17B681B687E
:103720005A697B681B6802F002025A617B681B6859
:10373000184604F073FA034603F01003102B61D10E
:103740007B681B689A697B681B6822F010029A618B
:103750003B6A1B6ABB61BB6903F00F021346DB00C7
:1037600013449B0003F514737A68134404337B619C
:10377000BB695B0C03F00F03022B24D1BA6947F637
:10378000F0731340002B35D07B69D968BB691B09E6
:103790009BB2C3F30A039BB21A46386A04F0AAF834
:1037A0007B69DA68BB691B09C3F30A031A447B69A6
:1037B000DA607B695A69BB691B09C3F30A031A44BF
:1037C0007B695A6116E0BB695B0C03F00F03062BA3
:1037D00010D17B6803F29C4308221946386A04F032
:1037E00089F87B695A69BB691B09C3F30A031A4448
:1037F0007B695A617B681B689A697B681B6842F029
:1038000010029A617B681B68184604F007FA0346A9
:1038100003F40023B3F5002F40F0A78000237B6260
:103820007B681B68184604F00CFAB86299E0BB6A22
:1038300003F00103002B00F08E807B681B687A6A1E
:10384000D2B21146184604F030FA38613B6903F0F1
:103850000103002B0CD07B6A5A01FB69134403F56A
:1038600030631A4601239360796A786800F0A2FEFB
:103870003B6903F00803002B0CD07B6A5A01FB69FB
:10388000134403F530631A4608239360796A786815
:1038900000F078FF3B6903F01003002B08D07B6A2F
:1038A0005A01FB69134403F530631A4610239360F1
:1038B0003B6903F00203002B30D03B6A5B6903F0E5
:1038C0008003802B09D1FB6903F500635B68FA690B
:1038D00002F5006243F4806353607A6A1346DB00AA
:1038E00013449B0003F514737A68134404337B611B
:1038F0007B69DB78012B08D17B690022DA707B6A57
:10390000DBB21946786806F0A7FD7B6A5A01FB69AD
:10391000134403F530631A46022393603B6903F0B6
:103920002003002B08D07B6A5A01FB69134403F57E
:1039300030631A46202393603B6903F40053002B45
:1039400009D07B6A5A01FB69134403F530631A46B8
:103950004FF4005393607B6A01337B62BB6A5B0860
:10396000BB62BB6A002B7FF462AF7B681B681846A2
:1039700004F054F9034603F48023B3F5802F40F09C
:10398000DB807B681B68184604F075F9B862002379
:103990007B62CDE0BB6A03F00103002B00F0C28024
:1039A0007B681B687A6AD2B21146184604F09BF90C
:1039B00038613B6903F00103002B57D07B6A03F0A9
:1039C0000F03012202FA03F3FB60FB6903F50063B6
:1039D0005A6BFB68DB43F96901F5006113404B63E7
:1039E0007B6A5A01FB69134403F510631A460123ED
:1039F00093607B689B79012B32D179687A6A134690
:103A0000DB0013449B000B442033196878687A6A02
:103A10001346DB0013449B0003441C331B6819440A
:103A200078687A6A1346DB0013449B000344203312
:103A300019607B6A002B13D179687A6A1346DB0020
:103A400013449B000B4424331B68002B08D17B6874
:103A500018687B6803F29C431A46012104F0A2F91E
:103A60007B6ADBB21946786806F07BFC3B6903F0A1
:103A70000803002B08D07B6A5A01FB69134403F545
:103A800010631A46082393603B6903F01003002B70
:103A900008D07B6A5A01FB69134403F510631A4688
:103AA000102393603B6903F04003002B08D07B6A2E
:103AB0005A01FB69134403F510631A4640239360CF
:103AC0003B6903F00203002B23D0796A386A03F0C4
:103AD0008FF97A6A1346DB0013449B0010337A682F
:103AE000134404337B617B69DB78012B08D17B694C
:103AF0000022DA707B6ADBB21946786806F0BEFCF9
:103B00007B6A5A01FB69134403F510631A460223CA
:103B100093603B6903F08003002B03D0796A7868D7
:103B200000F0BBFC7B6A01337B62BB6A5B08BB6253
:103B3000BB6A002B7FF42EAF7B681B68184604F02D
:103B40006DF8034603F00043B3F1004F22D1FB6947
:103B500003F500635B68FA6902F5006223F0010374
:103B600053607B6893F8CC34012B08D17B6800222A
:103B700083F8CC240021786800F0A2FE02E0786887
:103B800006F05CFC7B681B685A697B681B6802F066
:103B900000425A617B681B68184604F03FF80346F0
:103BA00003F40063B3F5006F12D1FB6903F5006302
:103BB0009B6803F00103012B02D1786806F018FC22
:103BC0007B681B685A697B681B6802F400625A6153
:103BD0007B681B68184604F021F8034603F4805301
:103BE000B3F5805F40F0B780FB6903F500635B6865
:103BF000FA6902F5006223F0010353607B681B68D9
:103C00001021184603F0F4F80023FB6246E0FB6A3B
:103C10005A01FB69134403F510631A464FF67F33CC
:103C20009360FB6A5A01FB69134403F510631B6838
:103C3000FA6A5101FA690A4402F5106223F400138A
:103C40001360FB6A5A01FB69134403F530631A469B
:103C50004FF67F339360FB6A5A01FB69134403F507
:103C600030631B68FA6A5101FA690A4402F530624E
:103C700023F400131360FB6A5A01FB69134403F534
:103C800030631B68FA6A5101FA690A4402F530622E
:103C900043F000631360FB6A0133FB627B681B79AE
:103CA0001A46FB6A9342B2D3FB6903F50063DB69F2
:103CB000FA6902F5006243F00113D3617B68DB7B94
:103CC000002B16D0FB6903F50063D3F88430FA6942
:103CD00002F5006243F00B03C2F88430FB6903F580
:103CE00000635B6CFA6902F5006243F00B035364F6
:103CF00015E0FB6903F500635B69FA6902F5006290
:103D000043F4005343F02B035361FB6903F5006355
:103D10001B69FA6902F5006243F00B031361FB694A
:103D200003F500631B68FA6902F5006223F4FE6381
:103D300013607B6818687B6899797B6803F29C4301
:103D40001A4604F02FF87B681B685A697B681B6869
:103D500002F480525A617B681B68184603F05EFFCC
:103D6000034603F40053B3F5005F23D17B681B685F
:103D7000184603F0F4FF7B681B68184603F0B1F89F
:103D800003461A467B68DA717B681C6801F0C8F943
:103D900001467B68DB791A46204602F0B5FD78685B
:103DA00006F007FB7B681B685A697B681B6802F496
:103DB00000525A617B681B68184603F02FFF0346C8
:103DC00003F00803082B0AD1786806F0E4FA7B6850
:103DD0001B685A697B681B6802F008025A617B689D
:103DE0001B68184603F01AFF034603F08003802B7C
:103DF00023D13B6A9B6923F080023B6A9A610123CD
:103E00007B6214E079687A6A1346DB0013449B00F6
:103E10000B4403F257231B78012B05D17B6ADBB2DD
:103E20001946786800F008FB7B6A01337B627B6887
:103E30001B791A467B6A9342E4D37B681B68184659
:103E400003F0ECFE034603F48013B3F5801F3CD16E
:103E500001237B622BE07B6A5A01FB69134403F563
:103E600010631B68BB6179687A6A1346DB001344F0
:103E70009B000B4418331B78012B15D1BB69002B19
:103E800012DA79687A6A1346DB0013449B000B440C
:103E9000173301221A707B6ADBB263F07F03DBB257
:103EA0001946786800F0C8FA7B6A01337B627B6848
:103EB0001B791A467B6A9342CDD37B681B685A698B
:103EC0007B681B6802F480125A617B681B68184685
:103ED00003F0A4FE034603F40013B3F5001F56D10C
:103EE00001237B6245E07B6A5A01FB69134403F5B9
:103EF00030631B68BB6179687A6A1346DB00134440
:103F00009B000B4403F516731B78012B2ED1BB6964
:103F1000002B2BDABB6903F480327B68D3F8D434EE
:103F200003F001039A4221D179687A6A1346DB00D3
:103F300013449B000B4403F2572301221A703B6A7F
:103F40009B6943F080023B6A9A613B6A5B6903F0BC
:103F50008003002B0AD1FB6903F500635B68FA69F3
:103F600002F5006243F40073536008E07B6A01339A
:103F70007B627B681B791A467B6A9342B3D37B686A
:103F80001B685A697B681B6802F400125A617B68DF
:103F90001B68184603F042FE034603F08043B3F16A
:103FA000804F0AD1786806F07BFA7B681B685A69F3
:103FB0007B681B6802F080425A617B681B68184668
:103FC00003F02CFE034603F00403042B15D17B6899
:103FD0001B685B68BB61BB6903F00403002B02D064
:103FE000786806F06BFA7B681B6859687B681B6809
:103FF000BA690A435A6000E000BF3437BD4690BD3D
:1040000080B582B000AF78600B46FB707B6893F898
:104010009434012B01D1022312E07B68012283F842
:1040200094247B68FA785A747B681B68FA78114686
:10403000184603F08BFD7B68002283F8942400234C
:1040400018460837BD4680BD80B584B000AF7860A3
:10405000084611461A460346FB700B463B80134642
:10406000BB700023FB7297F90330002B0FDAFB784B
:1040700003F00F021346DB0013449B0010337A68F1
:1040800013440433FB60FB6801225A700FE0FB7895
:1040900003F00F021346DB0013449B0003F5147377
:1040A0007A6813440433FB60FB6800225A70FB7883
:1040B00003F00F03DAB2FB681A703A88FB689A6063
:1040C000FB68BA781A71FB685B78002B04D0FB6838
:1040D0001B789AB2FB685A83BB78022B02D1FB682B
:1040E00000225A717B6893F89434012B01D102238A
:1040F0000EE07B68012283F894247B681B68F968D2
:10410000184602F013FF7B68002283F89424FB7AA0
:1041100018461037BD4680BD80B584B000AF7860CA
:104120000B46FB7097F90330002B0FDAFB7803F096
:104130000F021346DB0013449B0010337A681344CC
:104140000433FB60FB6801225A700FE0FB7803F038
:104150000F021346DB0013449B0003F514737A68C7
:1041600013440433FB60FB6800225A70FB7803F0B1
:104170000F03DAB2FB681A707B6893F89434012B52
:1041800001D102230EE07B68012283F894247B682E
:104190001B68F968184602F051FF7B68002283F81B
:1041A0009424002318461037BD4680BD80B586B0E4
:1041B00000AFF8607A603B600B46FB72FB7A03F05D
:1041C0000F021346DB0013449B0003F51473FA68D7
:1041D000134404337B617B697A68DA607B693A68EF
:1041E0001A617B6900225A617B6900225A70FB7A4E
:1041F00003F00F03DAB27B691A70FB689B79012B1D
:1042000002D17A687B69DA61FB681868FB689B7980
:104210001A46796902F0EEFF002318461837BD46AA
:1042200080BD80B483B000AF78600B46FB70FB7834
:1042300003F00F0279681346DB0013449B000B4424
:1042400003F51A731B6818460C37BD465DF8047BEE
:10425000704780B586B000AFF8607A603B600B466F
:10426000FB72FB7A03F00F021346DB0013449B0042
:104270001033FA68134404337B617B697A68DA602F
:104280007B693A681A617B6900225A617B69012265
:104290005A70FB7A03F00F03DAB27B691A70FB687D
:1042A0009B79012B02D17A687B69DA61FB68186817
:1042B000FB689B791A46796902F09CFF0023184637
:1042C0001837BD4680BD80B584B000AF78600B461E
:1042D000FB70FB7803F00F037A681279934201D9DF
:1042E00001234FE097F90330002B0FDAFB7803F03E
:1042F0000F021346DB0013449B0010337A6813440B
:104300000433FB60FB6801225A700DE0FA78134613
:10431000DB0013449B0003F514737A6813440433E1
:10432000FB60FB6800225A70FB6801229A70FB78E0
:1043300003F00F03DAB2FB681A707B6893F89434C9
:10434000012B01D102231DE07B68012283F8942414
:104350007B681B68F968184603F024FBFB7803F0C0
:104360000F03002B09D17B6818687B6899797B68FB
:1043700003F29C431A4603F015FD7B68002283F884
:104380009424002318461037BD4680BD80B584B004
:1043900000AF78600B46FB70FB7803F00F037A6880
:1043A0001279934201D9012342E097F90330002B9F
:1043B0000FDAFB7803F00F021346DB0013449B0077
:1043C00010337A6813440433FB60FB6801225A708F
:1043D0000FE0FB7803F00F021346DB0013449B0051
:1043E00003F514737A6813440433FB60FB680022FE
:1043F0005A70FB6800229A70FB7803F00F03DAB260
:10440000FB681A707B6893F89434012B01D1022366
:104410000EE07B68012283F894247B681B68F968AE
:10442000184603F02DFB7B68002283F894240023B8
:1044300018461037BD4680BD80B584B000AF7860A7
:104440000B46FB7097F90330002B0CDAFB7803F076
:104450000F021346DB0013449B0010337A681344A9
:104460000433FB600CE0FB7803F00F021346DB0023
:1044700013449B0003F514737A6813440433FB6000
:104480007B681B68F968184603F04CF90346FB7219
:10449000FB7A18461037BD4680BD80B58AB002AFA2
:1044A000786039607B681B687B617B693B613A6837
:1044B0001346DB0013449B0010337A681344043323
:1044C000FB60FB685A69FB681B699A4201D90123AA
:1044D0006BE0FB681A69FB685B69D31AFB61FB68D8
:1044E0009B68FA699A4202D9FB689B68FB61FB6989
:1044F00003339B08BB612AE0FB681A69FB685B69B0
:10450000D31AFB61FB689B68FA699A4202D9FB687F
:104510009B68FB61FB6903339B08BB61FB68D9683F
:104520003B68DAB2FB6998B27B689B7900930346DB
:10453000786903F0A1F9FB68DA68FB691A44FB6843
:10454000DA60FB685A69FB691A44FB685A613B6888
:104550005A013B69134403F510639B699BB2BA6926
:104560009A4209D8FB685A69FB681B699A4203D2D0
:10457000FB681B69002BBFD1FB681A69FB685B698C
:104580009A4211D83B6803F00F03012202FA03F3A9
:10459000BB603B6903F500635A6BBB68DB43396959
:1045A00001F5006113404B63002318462037BD46D8
:1045B00080BD000080B588B000AF786039607B684E
:1045C0001B68FB61FB69BB61FB693C3304331B68FF
:1045D0007B613B685A01BB69134403F530639B68F8
:1045E0003B617B689B79012B7BD13B6903F008031E
:1045F000002B15D07B69614A934240F2B9803B6938
:1046000003F40043002B00F0B3803B685A01BB6900
:10461000134403F530631A464FF400439360A7E058
:104620003B6903F02003002B09D03B685A01BB69AA
:10463000134403F530631A462023936098E03B69E6
:1046400003F02803002B40F093807B694B4A934290
:104650000FD93B6903F40043002B0AD03B685A0191
:10466000BB69134403F530631A464FF4004393606B
:104670007EE03A681346DB0013449B0003F5147395
:104680007A6813440433FB60FB681A6A3B6859017B
:10469000BB690B4403F530631B69C3F31203D21AE1
:1046A000FB685A613B68002B14D1FB681B69002B27
:1046B00009D17B6818687B6803F29C431A46012184
:1046C00003F070FB06E0FB68DA68FB685B691A447C
:1046D000FB68DA603B68DBB21946786805F026FEB5
:1046E00046E07B69264A934224D13B6903F40043A8
:1046F000002B0AD03B685A01BB69134403F53063B1
:104700001A464FF40043936032E03B6903F0200304
:10471000002B08D03B685A01BB69134403F5306392
:104720001A46202393603B68DBB21946786805F08F
:10473000FDFD1DE03B68002B14D179683A681346F3
:10474000DB0013449B000B4403F519731B68002B1B
:1047500008D17B6818687B6803F29C431A460021E5
:1047600003F020FB3B68DBB21946786805F0DEFDFC
:10477000002318462037BD4680BD00BF0A30544F85
:104780000A31544F80B586B000AF786039607B68DD
:104790001B687B617B693B617B693C3304331B682D
:1047A000FB603B685A013B69134403F530639B6827
:1047B000BB60FB68154A93420ED9BB6803F4004303
:1047C000002B09D03B685A013B69134403F5306361
:1047D0001A464FF400439360786805F095FDFB6836
:1047E0000A4A93420CD97B689B79012B08D17B68DC
:1047F00018687B6803F29C431A46012103F0D2FA41
:10480000002318461837BD4680BD00BF0A30544FFC
:1048100080B485B000AF78600B46FB7013463B80D8
:104820007B681B685B6ABB60FB78002B07D13B8809
:1048300019047B681B68BA680A439A6228E07B689F
:104840001B689B6A1B0CBA681344BB600023FB7394
:104850000DE07B681A68FB7B40339B0013445B6868
:104860001B0CBA681344BB60FB7B0133FB73FA7B00
:10487000FB78013B9A42ECD33B8818047B681968AB
:10488000FB78013BBA68024340339B000B445A60FB
:10489000002318461437BD465DF8047B704780B48A
:1048A00083B000AF78600B467B807B681B687A889A
:1048B0005A62002318460C37BD465DF8047B7047EA
:1048C00080B483B000AF78600B46FB7000BF0C373C
:1048D000BD465DF8047B704780B586B000AF786058
:1048E0007B68002B01D1012367E27B681B6803F022
:1048F0000103002B75D0884B9B6803F00C03042B3D
:104900000CD0854B9B6803F00C03082B12D1824B13
:104910005B6803F48003B3F5800F0BD17E4B1B68FB
:1049200003F40033002B5BD07B685B68002B57D10E
:10493000012342E27B685B68B3F5803F06D1764B8A
:104940001B68754A43F4803313601DE07B685B6825
:10495000B3F5A02F0CD1704B1B686F4A43F4802332
:1049600013606D4B1B686C4A43F4803313600BE09B
:10497000694B1B68684A23F480331360664B1B68DD
:10498000654A23F4802313607B685B68002B13D097
:10499000FDF728FD386108E0FDF724FD02463B697C
:1049A000D31A642B01D9032307E25B4B1B6803F482
:1049B0000033002BF0D014E0FDF714FD386108E05F
:1049C000FDF710FD02463B69D31A642B01D903237E
:1049D000F3E1514B1B6803F40033002BF0D100E0EE
:1049E00000BF7B681B6803F00203002B63D04A4BB7
:1049F0009B6803F00C03002B0BD0474B9B6803F024
:104A00000C03082B1CD1444B5B6803F48003002B80
:104A100016D1414B1B6803F00203002B05D07B68C5
:104A2000DB68012B01D00123C7E13B4B1B6823F05E
:104A3000F8027B681B69DB00374913430B603AE0DF
:104A40007B68DB68002B20D0344B01221A60FDF715
:104A5000C9FC386108E0FDF7C5FC02463B69D31A82
:104A6000022B01D90323A8E12B4B1B6803F002039F
:104A7000002BF0D0284B1B6823F0F8027B681B69E1
:104A8000DB00254913430B6015E0244B00221A601C
:104A9000FDF7A8FC386108E0FDF7A4FC02463B697D
:104AA000D31A022B01D9032387E11B4B1B6803F0A8
:104AB0000203002BF0D17B681B6803F00803002B76
:104AC00036D07B685B69002B16D0154B01221A602B
:104AD000FDF788FC386108E0FDF784FC02463B697D
:104AE000D31A022B01D9032367E10B4B5B6F03F051
:104AF0000203002BF0D01BE0094B00221A60FDF7E7
:104B000071FC38610EE0FDF76DFC02463B69D31A7B
:104B1000022B07D9032350E100380240000047422E
:104B2000800E4742884B5B6F03F00203002BEAD1F3
:104B30007B681B6803F00403002B00F097800023C0
:104B4000FB75814B1B6C03F08053002B0FD10023AE
:104B5000BB607D4B1B6C7C4A43F0805313647A4BE3
:104B60001B6C03F08053BB60BB680123FB75774B64
:104B70001B6803F48073002B18D1744B1B68734AB5
:104B800043F480731360FDF72DFC386108E0FDF7F6
:104B900029FC02463B69D31A022B01D903230CE1FD
:104BA0006A4B1B6803F48073002BF0D07B689B6812
:104BB000012B06D1644B1B6F634A43F0010313675B
:104BC0001CE07B689B68052B0CD15F4B1B6F5E4A1A
:104BD00043F0040313675C4B1B6F5B4A43F0010314
:104BE00013670BE0584B1B6F574A23F00103136701
:104BF000554B1B6F544A23F0040313677B689B6873
:104C0000002B15D0FDF7EEFB38610AE0FDF7EAFB5B
:104C100002463B69D31A41F28832934201D90323F9
:104C2000CBE0494B1B6F03F00203002BEED014E0E6
:104C3000FDF7D8FB38610AE0FDF7D4FB02463B697B
:104C4000D31A41F28832934201D90323B5E03E4B97
:104C50001B6F03F00203002BEED1FB7D012B05D16E
:104C6000394B1B6C384A23F0805313647B689B6973
:104C7000002B00F0A180344B9B6803F00C03082B41
:104C80005CD07B689B69022B41D1314B00221A60BA
:104C9000FDF7A8FB386108E0FDF7A4FB02463B697D
:104CA000D31A022B01D9032387E0274B1B6803F09B
:104CB0000073002BF0D17B68DA697B681B6A1A43AA
:104CC0007B685B6A9B011A437B689B6A5B08013BBC
:104CD0001B041A437B68DB6A1B061B4913434B60AA
:104CE0001B4B01221A60FDF77DFB386108E0FDF7E0
:104CF00079FB02463B69D31A022B01D903235CE0FE
:104D0000114B1B6803F00073002BF0D054E0104BE4
:104D100000221A60FDF766FB386108E0FDF762FBD0
:104D200002463B69D31A022B01D9032345E0064B07
:104D30001B6803F00073002BF0D13DE07B689B699A
:104D4000012B07D1012338E00038024000700040F9
:104D5000600047421B4B5B68FB607B689B69012BD3
:104D600028D0FB6803F480027B68DB699A4221D17A
:104D7000FB6803F03F027B681B6A9A421AD1FA680B
:104D800047F6C07313407A68526A9201934211D178
:104D9000FB6803F440327B689B6A5B08013B1B04A1
:104DA0009A4207D1FB6803F070627B68DB6A1B06DE
:104DB0009A4201D0012300E0002318461837BD466F
:104DC00080BD00BF0038024080B584B000AF78607D
:104DD00039607B68002B01D10123CCE0684B1B6854
:104DE00003F007033A689A420CD9654B3A68D2B28D
:104DF0001A70634B1B6803F007033A689A4201D0AC
:104E00000123B8E07B681B6803F00203002B20D06D
:104E10007B681B6803F00403002B05D0594B9B688B
:104E2000584A43F4E05393607B681B6803F008031F
:104E3000002B05D0534B9B68524A43F46043936068
:104E4000504B9B6823F0F0027B689B684D491343ED
:104E50008B607B681B6803F00103002B44D07B68E8
:104E60005B68012B07D1474B1B6803F40033002B11
:104E700019D101237FE07B685B68022B03D07B683C
:104E80005B68032B07D13F4B1B6803F00073002BBB
:104E900009D101236FE03B4B1B6803F00203002B99
:104EA00001D1012367E0374B9B6823F003027B6845
:104EB0005B68344913438B60FDF794FAF8600AE0AD
:104EC000FDF790FA0246FB68D31A41F2883293420A
:104ED00001D903234FE02B4B9B6803F00C027B6846
:104EE0005B689B009A42EBD1254B1B6803F00703DC
:104EF0003A689A420CD2224B3A68D2B21A70204BCE
:104F00001B6803F007033A689A4201D0012332E09C
:104F10007B681B6803F00403002B08D0194B9B68C7
:104F200023F4E0527B68DB68164913438B607B688F
:104F30001B6803F00803002B09D0124B9B6823F475
:104F400060427B681B69DB000E4913438B6000F0F5
:104F500021F802460B4B9B681B0903F00F030A491B
:104F6000CB5C22FA03F3094A1360094B1B6818460D
:104F7000FDF7F4F9002318461037BD4680BD00BF89
:104F8000003C02400038024010C70008000000202A
:104F9000280000202DE9B04F90B000AF00237B63C4
:104FA0000023FB6300233B630023BB63594B9B68D7
:104FB00003F00C03082B0DD0082B00F2A180002B6E
:104FC00002D0042B03D09BE0534BBB639BE0534BBD
:104FD000BB6398E04F4B5B6803F03F037B634D4B33
:104FE0005B6803F48003002B28D04A4B5B689B0965
:104FF00000223B627A623B6AC3F308000021474B00
:1050000003FB01F2002300FB03F31344434AA0FB1C
:105010000212FA620A46BA62FA6A1344FB627B6BB6
:105020000022BB61FA61D7E90623D7E90A01FBF741
:105030008FF902460B461346FB6353E0354B5B6822
:105040009B0900223B617A613B69C3F3080A4FF078
:10505000000B52465B464FF000004FF00001590133
:1050600041EAD261500102460B46B2EB0A0863EBFB
:105070000B094FF000024FF000034FEA891343EA97
:1050800098634FEA8812B2EB080463EB09054FF00E
:1050900000024FF00003EB0043EA5473E2001446B1
:1050A0001D4614EB0A033B6045EB0B037B604FF09E
:1050B00000024FF00003D7E9004529468B02214644
:1050C00043EA915321468A02104619467B6B00221F
:1050D000BB60FA60D7E90223FBF73AF902460B46B8
:1050E0001346FB630B4B5B681B0C03F0030301339C
:1050F0005B003B63FA6B3B6BB2FBF3F3BB6302E019
:10510000054BBB6300BFBB6B18464037BD46BDE8CF
:10511000B08F00BF003802400024F40040787D01C9
:1051200080B400AF034B1B681846BD465DF8047B96
:10513000704700BF0000002080B500AFFFF7F0FF10
:105140000246054B9B689B0A03F007030349CB5CAF
:1051500022FA03F3184680BD0038024020C7000839
:1051600080B500AFFFF7DCFF0246054B9B685B0B89
:1051700003F007030349CB5C22FA03F3184680BD12
:105180000038024020C7000880B582B000AF7860C8
:105190007B68002B01D1012341E07B6893F83D300F
:1051A000DBB2002B06D17B68002283F83C207868B4
:1051B000FBF72CFD7B68022283F83D207B681A6890
:1051C0007B6804331946104600F050F97B680122D1
:1051D00083F846207B68012283F83E207B68012209
:1051E00083F83F207B68012283F840207B680122FE
:1051F00083F841207B68012283F842207B680122EA
:1052000083F843207B68012283F844207B680122D5
:1052100083F845207B68012283F83D20002318464F
:105220000837BD4680BD000080B485B000AF78600F
:105230007B6893F83D30DBB2012B01D001233CE0C9
:105240007B68022283F83D207B681B681E4A9342DC
:1052500018D07B681B68B3F1804F13D07B681B6844
:105260001A4A93420ED07B681B68194A934209D0B0
:105270007B681B68174A934204D07B681B68164AF8
:10528000934211D17B681B689B6803F00703FB60A6
:10529000FB68062B10D07B681B681A687B681B684C
:1052A00042F001021A6007E07B681B681A687B689D
:1052B0001B6842F001021A60002318461437BD46ED
:1052C0005DF8047B704700BF00000140000400400F
:1052D00000080040000C00400040014080B584B050
:1052E00000AF786039600023FB737B6893F83C3033
:1052F000012B01D10223B4E07B68012283F83C201A
:105300007B68022283F83D207B681B689B68BB603A
:10531000BB6823F07703BB60BB6823F47F43BB60AB
:105320007B681B68BA689A603B681B68B3F5005FCE
:105330003ED0B3F5005F00F28780B3F5805F00F0E8
:105340008680B3F5805F7FD8702B1AD0702B7BD806
:10535000602B50D0602B77D8502B3CD0502B73D87B
:10536000402B58D0402B6FD8302B64D0302B6BD8CB
:10537000202B60D0202B67D8002B5CD0102B5AD06C
:1053800062E07B6818683B6899683B685A683B68CC
:10539000DB6800F071F97B681B689B68BB60BB68C9
:1053A00043F07703BB607B681B68BA689A604FE084
:1053B0007B6818683B6899683B685A683B68DB689B
:1053C00000F05AF97B681B689A687B681B6842F496
:1053D00080429A603CE07B6818683B6859683B688B
:1053E000DB681A4600F0CEF87B681B68502118462F
:1053F00000F027F92CE07B6818683B6859683B6827
:10540000DB681A4600F0EDF87B681B6860211846DF
:1054100000F017F91CE07B6818683B6859683B6826
:10542000DB681A4600F0AEF87B681B68402118461E
:1054300000F007F90CE07B681A683B681B681946A6
:10544000104600F0FEF803E00123FB7300E000BF0C
:105450007B68012283F83D207B68002283F83C2092
:10546000FB7B18461037BD4680BD000080B485B078
:1054700000AF786039607B681B68FB607B683A4AE4
:1054800093420FD07B68B3F1804F0BD07B68374AD3
:10549000934207D07B68364A934203D07B68354AF3
:1054A000934208D1FB6823F07003FB603B685B68A4
:1054B000FA681343FB607B682B4A93421BD07B68DE
:1054C000B3F1804F17D07B68284A934213D07B6892
:1054D000274A93420FD07B68264A93420BD07B68C1
:1054E000254A934207D07B68244A934203D07B68C5
:1054F000234A934208D1FB6823F44073FB603B6866
:10550000DB68FA681343FB60FB6823F080023B68AA
:105510005B691343FB607B68FA681A603B689A68B2
:105520007B68DA623B681A687B689A627B680E4A1D
:10553000934203D13B681A697B681A637B68012236
:105540005A617B681B6903F00103012B05D17B685D
:105550001B6923F001027B681A6100BF1437BD4646
:105560005DF8047B704700BF00000140000400406C
:1055700000080040000C0040004001400044014091
:105580000048014080B487B000AFF860B9607A602D
:10559000FB681B6A7B61FB681B6A23F00102FB68E6
:1055A0001A62FB689B693B613B6923F0F0033B6136
:1055B0007B681B013A6913433B617B6923F00A0353
:1055C0007B617A69BB6813437B61FB683A699A61C6
:1055D000FB687A691A6200BF1C37BD465DF8047B20
:1055E000704780B487B000AFF860B9607A60FB683C
:1055F0001B6A7B61FB681B6A23F01002FB681A625E
:10560000FB689B693B613B6923F470433B617B68AA
:105610001B033A6913433B617B6923F0A0037B6161
:10562000BB681B017A6913437B61FB683A699A6125
:10563000FB687A691A6200BF1C37BD465DF8047BBF
:10564000704780B485B000AF786039607B689B6834
:10565000FB60FB6823F07003FB603A68FB68134350
:1056600043F00703FB607B68FA689A6000BF143759
:10567000BD465DF8047B704780B487B000AFF8602A
:10568000B9607A603B60FB689B687B617B6923F44F
:105690007F437B613B681A027B681A43BB681343F4
:1056A0007A6913437B61FB687A699A6000BF1C3793
:1056B000BD465DF8047B704780B485B000AF78606C
:1056C00039607B6893F83C30012B01D1022350E014
:1056D0007B68012283F83C207B68022283F83D200E
:1056E0007B681B685B68FB607B681B689B68BB60B2
:1056F000FB6823F07003FB603B681B68FA68134388
:10570000FB607B681B68FA685A607B681B681C4AF0
:10571000934218D07B681B68B3F1804F13D07B682D
:105720001B68184A93420ED07B681B68164A934246
:1057300009D07B681B68154A934204D07B681B68BC
:10574000134A93420CD1BB6823F08003BB603B68D3
:105750005B68BA681343BB607B681B68BA689A6071
:105760007B68012283F83D207B68002283F83C207F
:10577000002318461437BD465DF8047B704700BF10
:10578000000001400004004000080040000C004000
:105790000040014080B582B000AF78607B68002B8C
:1057A00001D1012342E07B6893F84130DBB2002B4A
:1057B00006D17B68002283F840207868FBF746FA20
:1057C0007B68242283F841207B681B68DA687B6849
:1057D0001B6822F40052DA60786800F0BDFD7B6837
:1057E0001B681A697B681B6822F490421A617B6807
:1057F0001B685A697B681B6822F02A025A617B6821
:105800001B68DA687B681B6842F40052DA607B68C8
:1058100000225A647B68202283F841207B68202282
:1058200083F842207B6800225A6300231846083719
:10583000BD4680BD80B58AB002AFF860B9603B60FC
:105840001346FB8000237B61FB6893F84130DBB299
:10585000202B75D1BB68002B02D0FB88002B01D117
:1058600001236EE0FB6800225A64FB68212283F862
:105870004120FCF7B7FD7861FB68FA889A84FB68E1
:10588000FA88DA84FB689B68B3F5805F08D1FB680F
:105890001B69002B04D10023FB61BB68BB6103E0E3
:1058A000BB68FB610023BB612EE03B6800937B6912
:1058B00000228021F86800F01FFB0346002B05D072
:1058C000FB68202283F8412003233AE0FB69002B88
:1058D0000BD1BB691B881A46FB681B68C2F3080220
:1058E0005A60BB690233BB6107E0FB691A78FB6849
:1058F0001B685A60FB690133FB61FB68DB8C9BB260
:10590000013B9AB2FB68DA84FB68DB8C9BB2002B0C
:10591000CBD13B6800937B6900224021F86800F0FE
:10592000EBFA0346002B05D0FB68202283F84120C8
:10593000032306E0FB68202283F84120002300E0D7
:10594000022318462037BD4680BD80B584B000AF25
:10595000F860B9601346FB80FB6893F84230DBB215
:10596000202B12D1BB68002B02D0FB88002B01D169
:1059700001230BE0FB6800221A63FB881A46B96812
:10598000F86800F012FB034600E0022318461037C7
:10599000BD4680BD80B5BAB000AF78607B681B683B
:1059A0001B68C7F8E4307B681B68DB68C7F8E03029
:1059B0007B681B685B69C7F8DC300023C7F8D83008
:1059C0000023C7F8D430D7F8E43003F00F03C7F84A
:1059D000D830D7F8D830002B0FD1D7F8E43003F007
:1059E0002003002B09D0D7F8E03003F02003002B70
:1059F00003D0786800F0F2FB5BE2D7F8D830002BD8
:105A000000F0DE80D7F8DC3003F00103002B06D174
:105A1000D7F8E03003F49073002B00F0D180D7F872
:105A2000E43003F00103002B0BD0D7F8E03003F48F
:105A30008073002B05D07B685B6C43F001027B68B0
:105A40005A64D7F8E43003F00403002B0BD0D7F8E6
:105A5000DC3003F00103002B05D07B685B6C43F066
:105A600002027B685A64D7F8E43003F00203002B8B
:105A70000BD0D7F8DC3003F00103002B05D07B6896
:105A80005B6C43F004027B685A64D7F8E43003F09F
:105A90000803002B11D0D7F8E03003F02003002BCF
:105AA00005D1D7F8DC3003F00103002B05D07B686B
:105AB0005B6C43F008027B685A647B685B6C002B6C
:105AC00000F0F281D7F8E43003F02003002B08D077
:105AD000D7F8E03003F02003002B02D0786800F004
