:020000040800F2
:1000000000000120450F00081D0F00081F0F000809
:10001000210F0008230F0008250F00080000000032
:10002000000000000000000000000000270F000892
:10003000290F0008000000002B0F00082D0F0008FA
:10004000950F0008950F0008950F0008950F000800
:10005000950F0008950F0008950F0008950F0008F0
:10006000950F0008950F0008950F0008950F0008E0
:10007000950F0008950F0008950F0008950F0008D0
:10008000950F0008950F0008950F0008000000006C
:10009000000000000000000000000000950F0008B4
:1000A000950F0008950F0008950F0008950F0008A0
:1000B000950F0008950F0008950F0008950F000890
:1000C000950F0008950F0008950F0008950F000880
:1000D000950F0008950F0008950F0008000000001C
:1000E000950F0008950F0008950F0008000000000C
:1000F000000000000000000000000000950F000854
:1001000000000000950F0008950F0008950F0008EB
:1001100000000000000000000000000000000000DF
:10012000950F0008950F0008950F0008950F00081F
:10013000950F000800000000000000000000000013
:10014000000000000000000000000000950F000803
:10015000950F0008950F0008950F0008950F0008EF
:10016000950F0008950F0008000000000000000037
:10017000000000000000000000000000000000007F
:1001800000000000950F00080000000000000000C3
:04019000950F0008BF
:1001980010B5054C237833B9044B13B10448AFF3B9
:1001A80000800123237010BD100000200000000013
:1001B8007C32000808B5034B1BB103490348AFF371
:1001C800008008BD00000000140000207C320008F8
:1001D800034613F8012B002AFBD1181A013870477F
:1001E80081F0004102E000BF83F0004330B54FEAE0
:1001F80041044FEA430594EA050F08BF90EA020F4D
:100208001FBF54EA000C55EA020C7FEA645C7FEADF
:10021800655C00F0E2804FEA5454D4EB5555B8BF02
:100228006D420CDD2C4480EA020281EA030382EA73
:10023800000083EA010180EA020281EA0303362D05
:1002480088BF30BD11F0004F4FEA01314FF4801CD8
:100258004CEA113102D0404261EB410113F0004FEA
:100268004FEA03334CEA133302D0524263EB4303A1
:1002780094EA050F00F0A780A4F10104D5F1200E3F
:100288000DDB02FA0EFC22FA05F2801841F100019A
:1002980003FA0EF2801843FA05F359410EE0A5F16E
:1002A80020050EF1200E012A03FA0EFC28BF4CF09F
:1002B800020C43FA05F3C01851EBE37101F0004555
:1002C80007D54FF0000EDCF1000C7EEB00006EEB62
:1002D8000101B1F5801F1BD3B1F5001F0CD34908EC
:1002E8005FEA30004FEA3C0C04F101044FEA445243
:1002F80012F5800F80F09A80BCF1004F08BF5FEACA
:10030800500C50F1000041EB045141EA050130BDA9
:100318005FEA4C0C404141EB0101013C28BFB1F5BB
:10032800801FE9D291F0000F04BF01460020B1FA06
:1003380081F308BF2033A3F10B03B3F120020CDAD9
:100348000C3208DD02F1140CC2F10C0201FA0CF0B7
:1003580021FA02F10CE002F11402D8BFC2F1200C1C
:1003680001FA02F120FA0CFCDCBF41EA0C019040D2
:10037800E41AA2BF01EB0451294330BD6FEA04041B
:100388001F3C1CDA0C340EDC04F11404C4F1200206
:1003980020FA04F001FA02F340EA030021FA04F318
:1003A80045EA030130BDC4F10C04C4F1200220FA6F
:1003B80002F001FA04F340EA0300294630BD21FAAD
:1003C80004F0294630BD94F0000F83F4801306BF73
:1003D80081F480110134013D4EE77FEA645C18BF67
:1003E8007FEA655C29D094EA050F08BF90EA020FFE
:1003F80005D054EA000C04BF1946104630BD91EAF6
:10040800030F1EBF0021002030BD5FEA545C05D1F8
:100418004000494128BF41F0004130BD14F5800437
:100428003CBF01F5801130BD01F0004545F0FE41AB
:1004380041F470014FF0000030BD7FEA645C1ABFE0
:10044800194610467FEA655C1CBF0B46024650EA17
:10045800013406BF52EA033591EA030F41F4002143
:1004680030BD00BF90F0000F04BF0021704730B5C9
:100478004FF4806404F132044FF000054FF000019E
:1004880050E700BF90F0000F04BF0021704730B55F
:100498004FF4806404F1320410F0004548BF404234
:1004A8004FF000013EE700BF42004FEAE2014FEA89
:1004B80031014FEA02701FBF12F07F4393F07F4F64
:1004C80081F06051704732F07F4208BF704793F067
:1004D8007F4F04BF41F40021704730B54FF460747A
:1004E80001F0004521F000411CE700BF50EA01027D
:1004F80008BF704730B54FF000050AE050EA010226
:1005080008BF704730B511F0004502D5404261EB95
:1005180041014FF4806404F132045FEA915C3FF4D6
:10052800D8AE4FF003025FEADC0C18BF03325FEA73
:10053800DC0C18BF033202EBDC02C2F1200300FA24
:1005480003FC20FA02F001FA03FE40EA0E0021FA49
:1005580002F11444BDE600BF70B54FF0FF0C4CF437
:10056800E06C1CEA11541DBF1CEA135594EA0C0FE9
:1005780095EA0C0F00F0DEF82C4481EA030621EA24
:100588004C5123EA4C5350EA013518BF52EA03355F
:1005980041F4801143F4801338D0A0FB02CE4FF011
:1005A8000005E1FB02E506F00042E0FB03E54FF041
:1005B8000006E1FB03569CF0000F18BF4EF0010E39
:1005C800A4F1FF04B6F5007F64F5407404D25FEA35
:1005D8004E0E6D4146EB060642EAC62141EA5551E8
:1005E8004FEAC52040EA5E504FEACE2EB4F1FD0C2A
:1005F80088BFBCF5E06F1ED8BEF1004F08BF5FEAA8
:10060800500E50F1000041EB045170BD06F0004659
:1006180046EA010140EA020081EA0301B4EB5C0406
:10062800C2BFD4EB0C0541EA045170BD41F48011FE
:100638004FF0000E013C00F3AB8014F1360FDEBF23
:10064800002001F0004170BDC4F10004203C35DAFF
:100658000C341BDC04F11404C4F1200500FA05F382
:1006680020FA04F001FA05F240EA020001F0004223
:1006780021F0004110EBD37021FA04F642EB060199
:100688005EEA430E08BF20EAD37070BDC4F10C04C3
:10069800C4F1200500FA04F320FA05F001FA04F287
:1006A80040EA020001F0004110EBD37041F1000173
:1006B8005EEA430E08BF20EAD37070BDC4F120057E
:1006C80000FA05F24EEA020E20FA04F301FA05F2E6
:1006D80043EA020321FA04F001F0004121FA04F28E
:1006E80020EA020000EBD3705EEA430E08BF20EA5E
:1006F800D37070BD94F0000F0FD101F00046400098
:1007080041EB010111F4801F08BF013CF7D041EA19
:10071800060195F0000F18BF704703F0004652001D
:1007280043EB030313F4801F08BF013DF7D043EAEE
:100738000603704794EA0C0F0CEA135518BF95EAA4
:100748000C0F0CD050EA410618BF52EA4306D1D12B
:1007580081EA030101F000414FF0000070BD50EA4A
:10076800410606BF1046194652EA430619D094EAD4
:100778000C0F02D150EA013613D195EA0C0F05D1BE
:1007880052EA03361CBF104619460AD181EA030112
:1007980001F0004141F0FE4141F470014FF00000CA
:1007A80070BD41F0FE4141F4780170BD70B54FF065
:1007B800FF0C4CF4E06C1CEA11541DBF1CEA1355E5
:1007C80094EA0C0F95EA0C0F00F0A7F8A4EB0504C7
:1007D80081EA030E52EA03354FEA013100F08880BE
:1007E8004FEA03334FF0805545EA131343EA126387
:1007F8004FEA022245EA111545EA10654FEA00263C
:100808000EF000419D4208BF964244F1FD0404F5F4
:10081800407402D25B084FEA3202B61A65EB030550
:100828005B084FEA32024FF480104FF4002CB6EB0D
:10083800020E75EB030E22BFB61A754640EA0C008D
:100848005B084FEA3202B6EB020E75EB030E22BFCD
:10085800B61A754640EA5C005B084FEA3202B6EB0E
:10086800020E75EB030E22BFB61A754640EA9C00CD
:100878005B084FEA3202B6EB020E75EB030E22BF9D
:10088800B61A754640EADC0055EA060E18D04FEA5B
:10089800051545EA16754FEA06164FEAC30343EAFB
:1008A80052734FEAC2025FEA1C1CC0D111F4801FC8
:1008B8000BD141EA00014FF000004FF0004CB6E7C1
:1008C80011F4801F04BF01430020B4F1FD0C88BF60
:1008D800BCF5E06F3FF6AFAEB5EB030C04BFB6EB6B
:1008E800020C5FEA500C50F1000041EB045170BD5E
:1008F8000EF0004E4EEA113114EB5C04C2BFD4EB8B
:100908000C0541EA045170BD41F480114FF0000E0E
:10091800013C90E645EA060E8DE60CEA135594EA8A
:100928000C0F08BF95EA0C0F3FF43BAF94EA0C0F8D
:100938000AD150EA01347FF434AF95EA0C0F7FF402
:1009480025AF104619462CE795EA0C0F06D152EA56
:1009580003353FF4FDAE1046194622E750EA41063A
:1009680018BF52EA43067FF4C5AE50EA41047FF44B
:100978000DAF52EA43057FF4EBAE12E74A0011D2FD
:1009880012F5001211D20DD56FF47873B3EB6252E1
:100998000ED44FEAC12343F0004343EA505323FAED
:1009A80002F070474FF00000704750EA013002D162
:1009B8004FF0FF3070474FF00000704753B94AB905
:1009C800002908BF00281CBF4FF0FF314FF0FF304F
:1009D80000F070B9ADF1080C6DE904CE00F006F82E
:1009E800DDF804E0DDE9022304B070472DE9F047A3
:1009F800089E0D4604460F46002B4AD18A4294466B
:100A080065D9B2FA82F343B102FA03FCC3F12002BA
:100A18009F4020FA02F217439C404FEA1C4E1FFAEF
:100A28008CF5B7FBFEF1220C0EFB117742EA074268
:100A380001FB05F090420AD91CEB020201F1FF37D5
:100A480080F01C81904240F2198102396244121AE6
:100A5800A4B2B2FBFEF00EFB102244EA024400FBF3
:100A680005F5A5420AD91CEB040400F1FF3280F019
:100A78000781A54240F204816444023840EA0140FB
:100A8800641B00211EB1DC400023C6E90043BDE819
:100A9800F0878B4208D9002E00F0ED800021C6E9CE
:100AA80000050846BDE8F087B3FA83F1002949D16B
:100AB800AB4202D3824200F2F880841A65EB03024B
:100AC80001201746002EE2D0C6E90047DFE702B949
:100AD800FFDEB2FA82F3002B40F090808A1A4FEAC8
:100AE8001C471FFA8CFE0121B2FBF7F507FB152006
:100AF800220C42EA00420EFB05F0904208D91CEB9A
:100B0800020205F1FF3802D2904200F2CB8045463E
:100B1800121AA4B2B2FBF7F007FB102244EA02440F
:100B28000EFB00FEA64508D91CEB040400F1FF32B9
:100B380002D2A64500F2BB801046A4EB0E0440EAA0
:100B480005409FE7C1F120078B4022FA07FC4CEAD9
:100B5800030C05FA01F420FA07F3FD404FEA1C499B
:100B68002343B5FBF9F81FFA8CFE09FB18551C0C3A
:100B780044EA054408FB0EF5A54202FA01F200FA20
:100B880001F00BD91CEB040408F1FF3A80F08880CF
:100B9800A54240F28580A8F102086444641B9DB216
:100BA800B4FBF9F309FB134445EA044403FB0EFEC6
:100BB800A64508D91CEB040403F1FF356CD2A64501
:100BC8006AD9023B644443EA0843A3FB0295A4EBB9
:100BD8000E04AC42C846AE4656D353D056B1B0EB1D
:100BE800080264EB0E0404FA07F7CA40CC40174326
:100BF800C6E9007418460021BDE8F087C3F120015A
:100C080002FA03FC20FA01F225FA01F19D402A4379
:100C18004FEA1C471FFA8CFEB1FBF7F007FB1015D3
:100C2800110C41EA054100FB0EF58D4204FA03F46C
:100C380008D91CEB010100F1FF382FD28D422DD9C4
:100C480002386144491B92B2B1FBF7F507FB151155
:100C580042EA014205FB0EF1914208D91CEB02025F
:100C680005F1FF3816D2914214D9023D6244521A56
:100C780045EA004138E73146304608E73946E6E6B6
:100C88001046FBE64845A9D2B9EB020865EB0C0E05
:100C9800013BA3E74546EAE72B4694E74046D1E700
:100CA800D0467BE7023D624432E708460AE76444DF
:100CB800023842E7704700BF10B594B010220021F7
:100CC8000AA802F09CFA1422002103A802F097FA5D
:100CD800204B002101911A6C42F080521A641B6C5F
:100CE8001D4A03F080530193019B0291136823F47A
:100CF800404343F400431360136803F440430293F2
:100D0800029B01224FF48033CDE9082302244FF4DB
:100D18008003CDE90E4319214FF4A873CDE91013D0
:100D280008A80423CDE9123301F07CFD08B172B69E
:100D3800FEE70F23CDE903344FF48053CDE90630A5
:100D48000590214603A801F047FF08B172B6FEE7F7
:100D580014B010BD003802400070004030B589B0B2
:100D680001F03CFAFFF7A8FF1422002103A802F0C3
:100D780046FA0024394B00941A6B394842F00402B1
:100D88001A631A6B02F004020092009A01941A6B1B
:100D980042F080021A631A6B02F080020192019AF3
:100DA80002941A6B42F001021A631B6B03F00103F1
:100DB800029322464FF40051029B01F025FD224682
:100DC8002848102101F020FD01254FF40053244844
:100DD80003A9CDE90335CDE9054401F04DFC102305
:100DE800204803A9CDE90335CDE9054401F044FCC9
:100DF80000F091FB08B972B6FEE700F08FFB48B12E
:100E080000F0AAFBD8B9184C154D23780F2B18D130
:100E18000023237000F078FB4FF0E02300241C61CE
:100E28005C619C61114B1A6882F30888BFF34F8F8D
:100E3800BFF36F8F5B689847204609B030BD72B624
:100E4800FEE74FF40051284601F0E3FC642001F06E
:100E5800F1F9237801332370D7E700BF0038024047
:100E680000080240000002402C000020004000085A
:100E780082B00C4B002100915A6C42F480425A64B3
:100E88005A6C02F480420092009A01911A6C42F066
:100E980080521A641B6C03F080530193019B02B0CB
:100EA800704700BF0038024010B5044688B01422CD
:100EB800002103A802F0A3F92268144B9A4222D118
:100EC80003F58433002101915A6C114842F4805291
:100ED8005A645A6C02F480520192019A02911A6B78
:100EE80042F001021A631B6B03F001030293029B99
:100EF800E02202230321CDE903230523CDE90613CC
:100F080003A901F0B9FB08B010BD00BF00300140D3
:100F180000000240FEE7FEE7FEE7FEE7FEE7704757
:100F28007047704701F074B9034AD2F8883043F427
:100F38007003C2F88830704700ED00E0DFF834D065
:100F4800FFF7F2FF0C480D490D4A002302E0D45880
:100F5800C4500433C4188C42F9D30A4A0A4C0023FB
:100F680001E013600432A242FBD302F051F9FFF70B
:100F7800F5FE70470000012000000020100000204E
:100F8800D432000810000020EC030020FEE7000027
:100F98007FB54FF0FF338DF80F0000930DF1170266
:100FA800074801230DF10F0102F034F8044A92F8C2
:100FB8005130022BFBD09DF8170007B05DF804FBF9
:100FC8003000002010B50D480122102101F01CFC52
:100FD800012001F02FF91424FF20013CFFF7D8FF6E
:100FE80014F0FF04F8D105480122102101F00CFC8F
:100FF800BDE81040FF20FFF7CBBF00BF0000024054
:1010080038B540F040000C461546FFF7C1FF200EEA
:10101800FFF7BEFFC4F30740FFF7BAFFC4F307208A
:10102800FFF7B6FFE0B2FFF7B3FF45F00100BDE8F8
:101038003840FFF7ADBF10B50924FF20FFF7A8FF20
:10104800FF2803D1013C14F0FF04F6D110BD0000C5
:1010580038B5104DFF20FFF79BFF002210212846CE
:1010680001F0D2FBFF20FFF793FF002194220846EE
:10107800FFF7C6FFFFF7DFFF0446FF20FFF788FFF3
:1010880001221021284601F0BFFBFF20FFF780FF57
:10109800204638BD0000024010B50446FFF7CBFFDC
:1010A800012820700FD8FF20FFF772FF6070FF2023
:1010B800FFF76EFFA070FF20FFF76AFFE070FF20C8
:1010C800FFF766FF207110BD38B5114D0446FF20AB
:1010D800FFF75EFF00221021284601F095FBFF2054
:1010E800FFF756FF86224FF4D5710820FFF788FFD7
:1010F8002046FFF7D1FFFF20FFF74AFF28460122CD
:10110800102101F081FBBDE83840FF20FFF740BF08
:101118000000024038B5114D0446FF20FFF738FFA4
:1011280000221021284601F06FFBFF20FFF730FF57
:10113800002211463A20FFF763FF2046FFF7ACFF75
:10114800FF20FFF725FF28460122102101F05CFB54
:10115800BDE83840FF20FFF71BBF00BF000002407A
:1011680038B5104DFF20FFF713FF00221021284645
:1011780001F04AFBFF20FFF70BFF00221146372042
:10118800FFF73EFFFFF757FF0446FF20FFF700FF7A
:1011980001221021284601F037FBFF20FFF7F8FE57
:1011A800204638BD0000024038B5114DFF20FFF73A
:1011B800EFFE00221021284601F026FBFF20FFF752
:1011C800E7FE00224FF080412920FFF719FFFFF7C3
:1011D80032FF0446FF20FFF7DBFE012210212846DC
:1011E80001F012FBFF20FFF7D3FE204638BD00BFF9
:1011F800000002402DE9F84304460D469146FFF7EA
:101208001AFF074640B13846BDE8F883013EB6B23A
:1012180026B989F80080F6E741F29516FF20FFF716
:10122800B7FEFE288046F1D12544AC424FF0FF00BE
:1012380005D1FFF7ADFEFF20FFF7AAFEE9E7FFF7AC
:10124800A7FE04F8010BF0E730B589B0142200219D
:1012580003A801F0D4FF304830494FF48273C0E945
:1012680000130023C0E90233C0E90433C0E908339E
:101278004FF40074082283620A23C0E90642C3625D
:1012880001F06CFE044608B172B6FEE71022012395
:10129800CDE9050003A92248CDE9032301F0ECF9C3
:1012A800FFF790FEFFF7D4FE01288DF8040025D142
:1012B80001A8FFF709FF9DF80450012D24D19DF8DE
:1012C8000830AA2B20D16524FFF74AFF01288DF8A2
:1012D800040003D8FFF768FF8DF804000A2000F027
:1012E800A9FF9DF804308BB901A8FFF713FF9DF9FA
:1012F8000530002B08DA284609B030BD0134E4B2C5
:10130800322CCFD90028CDD10225F4E7013C14F0C6
:10131800FF04D9D1F8E700BF3000002000300140B9
:10132800000002402DE9F041FF24DFF854801470DA
:10133800074620460E461546FFF72AFE00221021D2
:10134800404601F061FA2046FFF722FE3946952211
:101358001120FFF755FE2A464FF400713046FFF77B
:1013680049FF05462046FFF713FE0122102140469B
:1013780001F04AFA2046FFF70BFE2846BDE8F08147
:101388000000024007B50DF10702FFF7CBFF58B97F
:101398009DF8073013F0F00F06D0FF2B0CBF042088
:1013A800032003B05DF804FB0420FAE7F8B5FF2733
:1013B8000546177038460C461646FFF7E9FD002229
:1013C80010211B4801F020FA3846FFF7E1FD2946B5
:1013D80000221820FFF714FEFFF72DFE0546D0B9AE
:1013E800FE20FFF7D5FD671E04F2FF1417F8010F62
:1013F800FFF7CEFDBC42F9D1FF20FFF7C9FDFF285A
:10140800FAD000F01F03052B05D13370FF20FFF73A
:10141800BFFD0028FAD0FF20FFF7BAFD01221021F6
:10142800034801F0F1F9FF20FFF7B2FD2846F8BDA7
:101438000000024007B50DF10702FFF7B7FF38B902
:101448009DF80700052818BF062003B05DF804FBC7
:101458000620FAE710B50446FF20FFF799FD0022A1
:101468001021074801F0D0F9FF20FFF791FD214630
:1014780000221220FFF7C4FDBDE81040FFF7DBBDD6
:101488000000024038B5044641F29515FF20FFF7E9
:101498007FFDFE2811D1651E04F2FF14FF20FFF71F
:1014A80077FD05F8010FAC42F8D1FF20FFF770FD7A
:1014B800FF20FFF76DFD032038BD013DE6D110F098
:1014C800F00F04D0FF280CBF04200320F4E7042009
:1014D800F2E70000002208B511460C20FFF790FD46
:1014E800FF20FFF755FD0028FAD0FF20FFF750FD39
:1014F80004480122102101F087F9BDE80840FF20C7
:10150800FFF746BD0000024008B501F0FFFBBDE84B
:10151800084000F01FBE00F0B9BD000070B58CB0E7
:1015280068460B490B4E6C4600F068FC0FCC3546FC
:101538000FC50FCC0FC594E8070085E807003046B3
:1015480000F030FA003818BF01200CB070BD00BFA1
:10155800A4320008880000202DE9F04F8FB000F079
:1015680055FF0646002840F09081DFF8E092B44F1E
:10157800B44D2B220021484601F041FE0024384694
:1015880000F0ACFC2B680D2803F101032B6000F080
:1015980082810A280CD009F80400384600F018FAAD
:1015A8002B6804F101085FFA88F898424446E6D1AE
:1015B800A548A64D1522002101F021FEA2480127C9
:1015C80084468246FAB2944244D8C4F347040025BC
:1015D8002A46013CA2425BDB1522002108A801F043
:1015E8000EFEBAF801209AF800709AF8038098491C
:1015F8008DF8207052BAADF822201FFA82FB0DF147
:1016080025003A468DF8248001F026FE1AF804E0F9
:101618008DF835E00DF1200CBCE80F0002AC0FC4CA
:101628009CE803006D4244F8040BEDB2AE452180FE
:1016380040F02F81B8F1040F99D801A353F828F08E
:10164800BF16000881180008B316000877150008AF
:10165800A51600086A78A2F141010529A97896BF64
:10166800373A12011201A1F1410E8CBF02F0F002CB
:10167800D2B2BEF1050F8DBF303937390A43114355
:101688008CBFCAB2D2B20CF8012B0237023599E7E7
:1016980010F8011B2944CDB201329BE7BDF80D308B
:1016A8005BBA1B046B4A136061E7BDF80D305BBA87
:1016B8009BB21B01F6E7674BDFF89C811D6898F821
:1016C80000405D44002C4DD15D4800F081F9FEF7E3
:1016D800C9FE59A3D3E90023FFF768F8FFF74EF9CD
:1016E80005F17843B3F5804F1DD3A3F58042B2F5D9
:1016F800804F23D3A3F50042B2F5804F20D3A3F542
:101708004043B3F5804F1DD305F1774303F57F02BE
:10171800B2F5803F18D303F57E03B3F5003F2CBF25
:101728004FF0FF3405240023E4B208930A94052CF3
:101738000CD8DFE804F02B486072939F0124F2E78D
:101748000224F0E70324EEE70424ECE7FF230B93DD
:1017580001A9022308A80C9300F03EFFA0B90123B9
:1017680088F800300024E3B2BB4204EB0501BFF463
:10177800FEAE38336B44022053F82B2C002300F0C4
:1017880089FE04340028EED006467EE0B0F5804F8E
:1017980070D9A0F58043013BB3F5804F68D3A0F51D
:1017A8000043013BB3F5804F60D3A0F54043013BB4
:1017B800B3F5804F58D3A0F10110B0F5803F34BF86
:1017C80005230623C3E7B0F5804F53D9A0F580431E
:1017D800013BB3F5804F4BD3A0F50043013BB3F574
:1017E800804F43D3A0F540400138B0F5803F34BF67
:1017F80004230523ABE7B0F5804F3BD9A0F5804320
:10180800013BB3F5804F33D3A0F500400138B0F564
:10181800803F2CBF0423032399E7B0F5804F29D9D3
:10182800A0F580400138B0F5803F2CBF0323022388
:101838008DE700BFAFF300806666666666660640A1
:1018480088000020B4000020E4000020B900002037
:10185800E8000020FC000020B8000020B0F5803F20
:101868008CBF0223012372E7042370E703236EE78A
:1018780002236CE701236AE700F0DAFD084800F06C
:1018880018FB0849084800F08BFB30460FB0BDE84C
:10189800F08F012078E7024800F020FB88E600BFBF
:1018A80088000020B0320008B8320008034B9A784C
:1018B800034B1B68023802FB003070479C03002072
:1018C8000401002010B50446FEF782FC0022D3B2C2
:1018D800984204D9E15C2E2902F10102F7D1184699
:1018E80010BD38B5044600252046FFF7EBFFEBB2E4
:1018F800984201D8012038BDE35C413B192B05F122
:101908000105F1D80020F6E770B50E460A490B4BE1
:101918000D681A880A498000B0FBF2F31D4402FBE7
:1019280013042846FFF72EFD05490E512846BDE849
:101938007040FFF77FBD00BF0C0100209C03002012
:101948001801002070B50546FFF7CBFF044678B9AB
:1019580006462846FFF7B6FFF3B2834201D3204676
:1019680070BDEB5C602B06F10106F2D90124F6E7A5
:101978000024F4E738B5084B084D1A888000B0FBFE
:10198800F2F302FB1304064A106829461844FFF7CD
:10199800F9FC285938BD00BF9C030020180100201D
:1019A8000C010020438B808A43EA00407047000006
:1019B800007848B1054B1A782E2A04D158785F3838
:1019C80018BF012070470120704700BF180300208E
:1019D800C06970470E4B0F4970B504465869FFF748
:1019E80065FFFFF7CFFC0B4B224603F1280618686A
:1019F8005968154603C50833B3422A46F7D1186813
:101A080028600223638301232362204670BD00BF40
:101A18009C030020180100202DE9F04F2DED028BCA
:101A2800C54B8FB093F802904D8B8B8A0C6A00AF30
:101A380080460E462C22002107F10C0045EA03459A
:101A480001F0DDFB4FF0000B4FEA091AB4FBFAFA7C
:101A58005FFA8BF35345C0F0AB80336A022B9BBF10
:101A6800B38A758B240945EA034584BFB4FBF9F3AF
:101A780009FB1344F37A8CBFE4B2002413F0180F67
:101A880000F0A280DFF8B4A2DFF8B892AB4928468C
:101A9800FFF70CFF2044FFF775FCD6F820B00BF0D9
:101AA8000F0C07F10C030AEB4C1C9E46BCE80F0018
:101AB800AEE80F00BCE80F00AEE80F009CE8070096
:101AC8003B7BE52B8EE8070000F04081002B7BD0A4
:101AD80097F8179009F03F020F2A40F0DD8003F0D5
:101AE800F002402A7B6040F0D78080229448DFF8DB
:101AF8004CB2002101F083FB7B6803F00F02134610
:101B08007A6002EB420203EB8203DA1D02F47E7272
:101B1800E946ADEB020D6A4608EE102A6B4418EE52
:101B2800102A934262D1DFF820C2DFF814E29CF851
:101B38000000013B13F8012F411CC9B2002A40F0F4
:101B4800A780D6F820A07D4B8CF800200AF00F0B58
:101B580003EB4B1CBCE80F0007F10C0EAEE80F00BE
:101B6800BCE80F00AEE80F009CE807007B688EE831
:101B7800070087F836300AF101033D6387F83440DF
:101B880087F835B03362CD46FB7D13F0180F14BFCC
:101B9800012300235B0007F10C05FB620FCD4446CF
:101BA8000FC40FCD0FC495E8070084E8070016E0BE
:101BB8002846FFF7DFFE634A904205460BF1010B0A
:101BC8007FF646AF022333622C22002107F10C0076
:101BD80001F015FB2C220021404601F010FB404685
:101BE8003C37BD46BDEC028BBDE8F08FD6F820E04F
:101BF8000EF00F020BEB42121146A3F10E0002F198
:101C08000A0C91F801A000F801AF02318C45F8D117
:101C18000521A3F10D0A02F1040C1CF811000AF8C1
:101C2800010001310B29F8D1117F03F8021C0EF1D4
:101C38000101927F316211F00F0103F8012C25D1C7
:101C48003D4B01349B78E4B2A34218D12846396051
:101C5800FFF790FE3B4B3968984205460ED90223A0
:101C680033622C2207F10C00796001F0C8FA796818
:101C78002C22404601F0C3FACD46B0E70C46284670
:101C8800FFF714FE59462044FFF77CFB534646E70E
:101C98000EF8002008464DE780220021284801F070
:101CA800AEFA97F818A0DFF898E00AF0080A07F1EA
:101CB8000C020021704612F8013B202B5FFA81FCD0
:101CC8000FD0BAF1000F06D0A3F1410CBCF1190FE7
:101CD8009CBF2033DBB2013108290EF8013BEAD161
:101CE8008C4619F0100F0DD0336A3D6303F00F02D4
:101CF80087F835200133002287F8344087F83620EA
:101D0800336241E73B7D202BEED02E2300F80C30C8
:101D180007F1130E01221EF8013F0CEB0201202BE4
:101D280018BF2033C9B202F1010214BFDBB200238D
:101D3800042A4354EFD1D7E79C0300201801002060
:101D480018030020F7FFFF0F980300200BF1010391
:101D580033621B07094B08BF01349B7808BFE4B204
:101D6800A3427FF493AE2846FFF704FE4845054694
:101D78004FF000047FF68AAE24E700BF9C030020E2
:101D88002DE9F041DFF870808CB006460C46174606
:101D980001A83946FFF740FE01A8FFF709FE10B376
:101DA8002046FEF715FA00220546D3B29D4213D805
:101DB80019D14046FEF70CFA854214D101AC0FCC7C
:101DC80035460FC50FCC0FC594E8070085E8070016
:101DD80030460CB0BDE8F08118F80310E35C8B4284
:101DE80002F10102E1D09DF804100029D0D12C2283
:101DF80001A801F004FAE1E7180300202DE9F043F7
:101E0800A1B08846074615A8FFF7E4FD4046FEF74F
:101E1800DFF9012849D198F800302F2B45D115ADAD
:101E28000FCD3C460FC40FCD0FC495E8070084E8DA
:101E38000700384621B0BDE8F083002120220DA814
:101E4800CDF8309001F0DBF9234604F123015E1C44
:101E5800F6B2B1421CDA1E4615AA0CA968466C46B1
:101E6800FFF78EFF0FCC15AD0FC50FCC0FC594E84B
:101E78000700BDF86E3085E80700BDF8682053EA12
:101E88000243CCD0344618F80430002BD5D1C6E72D
:101E980018F806202F2ADFD0002ADDD0331B803324
:101EA8006B4403F8512C3346D1E700244FF0000966
:101EB800E9E708B52C22002101F0A1F9BDE80840A6
:101EC800FFF708BB438B828A53EA024303BFC0690A
:101ED800B0FA80F04009002070470000F8B52B4D9B
:101EE8002B4F2B68013301BF438B828A43EA02439D
:101EF8002B60036A04462BB9828A3B70438B43EA02
:101F080002432B602046FFF7DDFF20B1FFF7E2FA1E
:101F180000203870F8BD3B784BB92868FFF7C6FC3D
:101F2800FFF798FA1B48FFF7ADFA01233B701A4EEA
:101F3800236A31889BB1B2784A43B3FBF2F102FBC2
:101F4800113363B9FFF7C6FA2868FFF713FD134A80
:101F580028609042DAD8FFF7A9FCFFF77BFA236ADA
:101F680043B13288B3FBF2F102FB113313B90948CC
:101F7800FFF788FA236A5A1C22623288B3FBF2F10F
:101F880002FB1133034AD05CC4E700BF0400002001
:101F9800C4030020180100209C030020F7FFFF0F56
:101FA8002DE9F04196B00E4601460BA8FFF726FF33
:101FB800BDF84630BDF8402053EA024303D1002063
:101FC80016B0BDE8F0810BAD0FCD6C460FC40FCD38
:101FD8000FC495E8070084E807006A4631460BA855
:101FE800FFF7CEFEBDF84650BDF84030DDF8508012
:101FF8009DF8547055EA0345E1D03046FFF7A2FC3E
:10200800044620B93046FFF75DFC08280BD9304656
:10201800FEF7DEF80D22B0FBF2F302FB1300DCB290
:1020280008B10134E4B24046FFF740FC1549384492
:10203800FFF7A8F90328C2D19DF85560114900227D
:10204800E520D3B2F31A5B010132C854D3B29C42E3
:10205800F7D24046FFF72AFC0A493844FFF7EAF965
:102068000528ACD1084EB54201D90120A8E7284679
:10207800FFF780FC002104462846FFF745FC25466B
:10208800F1E700BF18010020F7FFFF0FF8B5FFF7D1
:10209800DBF8022801D10020F8BD254C4FF4005090
:1020A8002146FFF76FF90328F5D1224BE76A5F61F4
:1020B800278E1F83D4F84770627BC3F81A70D4F850
:1020C8004B709A70B4F80B60E289256AD4F824C082
:1020D800B4F81110207CC3F81E70B4F84F7094F84F
:1020E800514083F8244000241E809A80DD601981C5
:1020F80098715F84C3F810C083F822400E4B02F534
:1021080000521A600D4B0CFB00F018600C4B024497
:102118001A600C4B06EB4111013991FBF6F119607D
:10212800094B0A441A60094BAD1A1D600120B3E738
:10213800180100209C0300200C0100200801002049
:1021480014010020100100200401002000010020DB
:10215800704700000B4B0C4A10B51A6200240B4A5A
:102168001C625A620A4A5C621A6180221C615A61C6
:102178004FF0FF325C619A619C61FFF7E9FF2046EE
:1021880010BD00BF003802400FC8E21031790700C7
:102198009F10600038B50E4B1A784FF47A73B3FB72
:1021A800F2F30C4A05461068B0FBF3F000F09AF819
:1021B800044658B90F2D09D8024629464FF0FF307A
:1021C80000F05EF8044B20461D6038BD0120FCE796
:1021D80008000020000000200C00002008B50B4B70
:1021E8001A6842F400721A601A6842F480621A602F
:1021F8001A6842F480721A60032000F02FF80F204A
:10220800FFF7C8FFFEF734FE002008BD003C02407F
:10221800034A044B11681B780B441360704700BFD6
:10222800C803002008000020014B1868704700BF51
:10223800C803002038B50446FFF7F6FF631C1CBF2F
:10224800054B1B78054618BFE418FFF7EDFF431B45
:10225800A342FAD338BD00BF080000200749CA6866
:1022680022F4E0620302120403F4E063120C134345
:1022780043F0BF6343F40033CB60704700ED00E0E8
:10228800164B30B5DC68C4F30224C4F10703251DDE
:10229800042B28BF0423062D4FF0FF358CBF033CC9
:1022A800002405FA03F321EA0303A54022EA050204
:1022B800A340002843EA0203ACBF00F16040084A8B
:1022C8004FEA0313B8BF00F00F00DBB2AABF00F556
:1022D8006140135480F8003330BD00BF00ED00E0CA
:1022E80014ED00E00138B0F1807F0BD24FF0E0230D
:1022F800054A5861F02182F82310002007229861CE
:102308001A6170470120704700ED00E0094910B5D7
:102318000C6924F440740C610C6944F440740C6139
:102328000C6944F001040C610260BFF36F8F4360D5
:1023380010BD00BF003C0240074B1A6922F44072EE
:102348001A611A6942F400721A611A6942F00102AC
:102358001A610160704700BF003C0240074B1A69D0
:1023680022F440721A611A6942F480721A611A6979
:1023780042F001021A610180704700BF003C024030
:10238800204BDA68D00606D51F49CA6942F0100208
:10239800CA611022DA60DA68910606D51A49CA6954
:1023A80042F00802CA612022DA60164BDA68520647
:1023B80006D51549CA6942F00402CA614022DA60AA
:1023C800DA68100606D51049CA6942F00202CA61E5
:1023D8008022DA600B4BDA68D10507D50A49CA6949
:1023E80042F00102CA614FF48072DA60DA6892073B
:1023F80006D50549CA6942F02002CA610222DA609C
:10240800704700BF003C0240CC030020064B1A690D
:10241800002ABFBF054A5A6002F188325A60BABF23
:102428001869C00F00207047003C0240230167452F
:10243800034A136943F0004313610020704700BF4B
:10244800003C0240114B70B500220446DA61FFF7E8
:10245800EBFE0F4D0646EB68DA030CD4EB68DB079E
:1024680044BF0123EB60E86810F4F97007D0FFF768
:1024780087FF012003E0611CEDD00CB9032070BD7B
:10248800FFF7D2FE801BA042E5D9F7E7CC03002076
:10249800003C0240F7B5204E01931446327E012AD3
:1024A80007460D4635D001224CF250303276FFF700
:1024B800C9FFB8B9019BCFB9184B1A6922F4407209
:1024C8001A611A691A611A69E4B242F001021A61C2
:1024D8002C704CF25030FFF7B5FF104A136923F007
:1024E800010313610023337603B0F0BD012F04D13B
:1024F800A1B22846FFF732FFEBE7022F04D12146AD
:102508002846FFF719FFE4E722462846FFF7FEFEB4
:10251800DFE70220E8E700BFCC030020003C0240D0
:10252800074B1A6922F440721A611A6942F00402D0
:102538001A611A6942EA002040F480301861704735
:10254800003C02400D4B1A6922F440721A611A6964
:10255800022994BF09024FF440710A431A611A69AB
:1025680022F0F8021A611A6942EAC00040F002003B
:1025780018611A6942F480321A617047003C0240BF
:10258800144B1A6891050FD51A6822F400721A6064
:102598001A6842F400621A601A6822F400621A602B
:1025A8001A6842F400721A600A4B1A6852050FD56D
:1025B8001A6822F480621A601A6842F480521A601B
:1025C8001A6822F480521A601A6842F480621A600B
:1025D800704700BF003C02402DE9F843DFF89480C3
:1025E80098F81830012B05460F463FD001234CF2CE
:1025F800503088F81830FFF725FF0446A0B94FF08F
:10260800FF333B602B68012B14D1287CFFF788FF30
:102618004CF25030FFF716FF154A136923F00403F4
:1026280004461361FFF7ACFF002388F818302046F2
:10263800BDE8F883AE68DFF83890D5E90223134483
:10264800B342EFD9297C3046FFF77CFF4CF250307B
:10265800FFF7F8FED9F8103023F0FA03C9F8103064
:1026680010B13E600446DDE70136E6E70224DEE706
:10267800003C0240CC0300202DE9F74FDFF884919D
:102688005E4A00230D6801249C4004EA050CAC4313
:1026980040F0A5804D6805F003044FEA430803267F
:1026A800671E06FA08F6012F6FEA060634D887680F
:1026B80007EA060ECF6807FA08F747EA0E078760A9
:1026C800476827EA0C0EC5F300179F4047EA0E0734
:1026D8004760C76807EA060E8F6807FA08F747EAEF
:1026E8000E07022CC76019D14FEAD30A00EB8A0AF9
:1026F80003F0070BDAF820704FEA8B0B4FF00F0E40
:102708000EFA0BFE27EA0E0E0F6907FA0BF747EAD7
:102718000E07CAF8207001E0032CDAD1076804FA22
:1027280008F437403C4315F4403F046057D04FF05D
:10273800000ACDF804A0D9F84460314C46F480462C
:10274800C9F84460D9F8446006F480460196019EB1
:1027580023F0030606F1804606F59C3603F0030EC7
:10276800D6F808804FEA8E0E0F2707FA0EF7A04218
:1027780028EA07073AD004F58064A04238D004F567
:102788008064A04236D004F58064A04234D004F5B9
:102798008064A0420CBF0424072404FA0EF43C43CE
:1027A800B46094686FEA0C06EF0254BF34404CEAF8
:1027B80004049460D468AF0254BF34404CEA040463
:1027C800D4605468AF0354BF34404CEA04045460E6
:1027D8001468ED0354BF34404CEA04041460013318
:1027E800102B7FF44FAF03B0BDE8F08F5446D4E709
:1027F8000124D2E70224D0E70324CEE7003C0140BD
:1028080000000240003802400AB1816170470904A3
:10281800FBE7436901EA030221EA030141EA0241B5
:10282800816170472DE9F341044640B30368DD0731
:1028380010D4236898075BD423681A0700F19D8099
:1028480023685B0700F1BD80A069002840F024815F
:1028580000202CE08D4B9A6802F00C02042A07D065
:102868009A6802F00C02082A0BD15B68590208D555
:10287800864B1B689A03DCD56368002BD9D10120ED
:1028880015E06368814DB3F5803F13D12B6843F49D
:1028980080332B60FFF7C8FC7C4E054633689B03EA
:1028A800C7D4FFF7C1FC401B6428F7D9032002B046
:1028B800BDE8F081B3F5A02F04D12B6843F4802341
:1028C8002B60E3E72A6822F480322A602A6822F41F
:1028D80080222A60002BDDD1FFF7A6FC06462B6874
:1028E8009F03A6D5FFF7A0FC801B6428F7D9DDE776
:1028F800664B9A6812F00C0F07D09A6802F00C0227
:10290800082A11D15B685E020ED4604A13689D07DD
:1029180002D5E368012BB2D11368216923F0F803CB
:1029280043EAC103136087E7E268594BB2B1012259
:102938001A60FFF779FC554D06462B68980707D5AE
:102948002B68226923F0F80343EAC2032B6073E77C
:10295800FFF76AFC801B0228EFD9A7E71A60FFF788
:1029680063FC4A4E0546336899077FF565AFFFF764
:102978005BFC401B0228F6D998E76269444B82B198
:102988000122C3F8802EFFF74FFC404E0546736FB7
:102998009F073FF555AFFFF747FC401B0228F6D9C4
:1029A80084E7C3F8802EFFF73FFC384E0546736F67
:1029B80098077FF545AFFFF737FC401B0228F6D98B
:1029C80074E7324B1A6C12F0805228D101921A6CBB
:1029D80042F080521A641B6C03F080530193019BF0
:1029E80001272C4D2B68D9051BD5A368274D012B32
:1029F80027D12B6F43F001032B67FFF715FC234EFC
:102A0800054641F28838336F9B0739D5002F3FF4CC
:102A18001BAF1E4A136C23F08053136414E700277E
:102A2800DFE72B6843F480732B60FFF7FDFB064656
:102A38002B68DA05D9D4FFF7F7FB801B0228F7D9F2
:102A480034E7052B04D12B6F43F004032B67D0E741
:102A58002A6F22F001022A672A6F22F004022A67ED
:102A6800002BCAD1FFF7E0FB41F2883806462B6FEE
:102A78009807CBD5FFF7D8FB801B4045F7D915E75A
:102A8800FFF7D2FB401B4045BDD90FE70038024095
:102A98000000474200700040364DAB6803F00C035D
:102AA800082B3DD0344B002202281A662BD1FFF7A1
:102AB800BBFB06462B6899011FD4D4E907321343A0
:102AC800626A43EA8213E26A43EA0263A26A52082C
:102AD800013A43EA02436B60274B264D01221A66EE
:102AE800FFF7A2FB04462B689A013FF5B1AEFFF74A
:102AF8009BFB001B0228F6D9D8E6FFF795FB801B45
:102B08000228D7D9D2E6FFF78FFB04462B689B0132
:102B18007FF59EAEFFF788FB001B0228F6D9C5E6B5
:102B280001283FF4C4AE6B68E26903F48001914266
:102B38007FF4A5AE216A03F03F028A427FF49FAE7C
:102B4800616A47F6C0721A40B2EB811F7FF497AEF4
:102B5800A26A520803F44031013AB1EB024F7FF404
:102B68008EAEE26A03F07063B3EB026F3FF470AEAF
:102B780085E600BF0038024000004742134908B507
:102B88008B6803F00C03042B1CD0082B1CD14A685B
:102B98004B68496813F4800314BF0D480D48C1F30E
:102BA800881118BF002302F03F02A1FB0001FDF7C6
:102BB80005FF064B5B68C3F3014301335B00B0FBC1
:102BC800F3F008BD0248FCE70248FAE70038024083
:102BD80040787D010024F4002DE9F0410D460446BB
:102BE80010B90120BDE8F081434B1A6802F00702D2
:102BF8008A4228D321688F072DD4C80740D43E4B7A
:102C08001A6802F00702AA4265D8226851076BD4F5
:102C1800130707D5394A2169936823F4604343EAC7
:102C2800C1039360FFF7AAFF344B354A9B68C3F38F
:102C38000313D35CD840334B1860334B1868FFF745
:102C4800A9FA0020CEE7CAB21A701B6803F007037E
:102C58008B42C6D1CEE7294B11F0040F1EBF9A68EC
:102C680042F4E0529A600E0742BF9A6842F460420A
:102C78009A609A68A06822F0F00202439A60BCE762
:102C880062681E4B012A1CD11B6813F4003FA8D0B0
:102C98001A4EB36823F003031343B360FFF7C4FA73
:102CA80041F288380746B368626803F00C03B3EB57
:102CB800820FA4D0FFF7B8FAC01B4045F3D9032010
:102CC80090E7911E01291B6802D813F0007FDEE708
:102CD80013F0020FDBE7EAB21A701B6803F0070370
:102CE800AB427FF47EAF90E70449E0688B6823F439
:102CF800E05303438B608BE7003C024000380240FE
:102D080094320008000000200C00002070B5414CEF
:102D1800FFF78AFA236843F0010305462360236816
:102D2800980758D5236843F080032360FFF77CFA9F
:102D38000023A360374C054641F28836A36813F098
:102D48000C0F4FD1FFF770FA236823F45023236048
:102D5800304C0546236899034AD4FFF765FA23687F
:102D680023F0807323602B4C054623689A0145D4D1
:102D7800FFF75AFA236823F080632360254C054641
:102D880023681B0140D4244B6360244BC4F884306F
:102D9800E368234A23F4F853E360E36823F4005319
:102DA800E360E36843F41F03E360E36843F400135C
:102DB800E360636F23F001036367636F43F080731D
:102DC8006367184B1A60184B1868FFF7E3F9003867
:102DD80018BF012005E0FFF727FA401B02289ED9FB
:102DE800032070BDFFF720FA401BB042A6D9F7E7D1
:102DF800FFF71AFA401B6428ACD9F1E7FFF714FA79
:102E0800401B0228B1D9EBE7FFF70EFA401B022856
:102E1800B6D9E5E700380240103000040030002041
:102E28000024F400000000200C0000202DE9F347E6
:102E38001F46894690460446FFF7F6F90A9D3D4429
:102E48002D1AFFF7F1F9264B1E68C6F3CB366E43F1
:102E5800824601962268936839EA03030CBF01236E
:102E68000023434501D100202EE07B1CF3D0FFF75F
:102E7800DBF9A0EB0A00A84229D323685A6822F09C
:102E8800E0025A606268B2F5827F0AD1A268B2F5A0
:102E9800004F02D0B2F5806F03D11A6822F04002C9
:102EA8001A60A26AB2F5005F07D11A6822F40052CC
:102EB8001A601A6842F400521A60012384F85130EB
:102EC800002384F85030032002B0BDE8F087019B4E
:102ED800002B019B03F1FF3308BF00250193B9E7DD
:102EE8000000002070B586B00B460092039116468C
:102EF800022101220446FFF799FF039B054628B1EA
:102F0800636D43F020036365032514E0114A1068DC
:102F1800114AB0FBF2F04FF47A72504362680590A0
:102F2800B2F5827F0AD100962A4680212046FFF713
:102F38007DFF0028E4D1284606B070BD059B002B14
:102F4800F9D0059B013B059323689B681B06F5D4C4
:102F5800F1E700BF0000002000366E0110B50446FE
:102F6800002855D0436A002B4ED14268B2F5827FC3
:102F780000D0C3610023A36294F8513003F0FF022C
:102F880023B984F850202046FDF78EFF2168A068F9
:102F9800A269022384F851300B6823F040030B60C8
:102FA800636800F4044003F482730343E06800F4A8
:102FB80000600343206900F002000343606900F0E9
:102FC8000100034302F400700343E06900F0380095
:102FD8000343206A00F080000343A06A00F4005015
:102FE80003430B60636A120C03F0100302F004023F
:102FF8001A434A60CB6923F40063CB6100200123A4
:10300800606584F8513010BD0023C0E90433B1E78E
:103018000120F8E72DE9F7431E4690F85030DDF817
:103028002880012B04460D46914600F0E6800123D6
:1030380080F85030FFF7F8F894F851306268012BA7
:103048000746D9B20AD0B2F5827F40F0D480A3688F
:10305800002B40F0D080042940F0CD800DB901202C
:103068006FE0B9F1000FFAD0002EF8D094F8513083
:10307800C4F83890042B1CBF052384F85130002372
:103088006365C4E910332368E687E6861968A6876E
:10309800490658BF1968256358BF41F04001A68604
:1030A80058BF1960E168B1F5006F50D10AB1012E1F
:1030B80007D135F8022BDA60E38E2563013B9BB21A
:1030C800E3860125E38E9BB263B9E38F9BB24BB9CC
:1030D8003A4641462046FFF705FF00287AD02023CC
:1030E8006365BCE721688B689A070DD5E38E9BB2B0
:1030F80053B14DB1236B33F8022BCA602363E38EBF
:10310800013B9BB2E38600258A6812F001020CD0CD
:10311800E38F9BB24BB1A36BC96823F8021BA3636F
:10312800E38F013B9BB2E3871546FFF77DF8C01B91
:103138004045C7D3B8F1FF3FC4D0012384F85130CC
:103148000320002384F8503003B0BDE8F0830AB1AF
:10315800012E08D12A781A73236B01332363E38E77
:10316800013B9BB2E3860125E38E9BB21BB9E38F3B
:103178009BB2002BACD0226893689B070ED5E38ED8
:103188009BB25BB155B1236B1B781373236B01336F
:103198002363E38E013B9BB2E38600252268916896
:1031A80011F001010DD0E38F9BB253B1A36BD2682C
:1031B8001A70A36B0133A363E38F013B9BB2E387D0
:1031C8000D46FFF731F8C01B4045CDD3B8F1FF3F9E
:1031D800CAD0B2E7A36833B923680190DA680192CC
:1031E8009B680193019B636D002B7FF438AF01232B
:1031F80084F85130A5E70220A3E70220A4E702449F
:103208000346934200D1704703F8011BF9E7000019
:1032180070B50D4D0D4C641BA4100026A64209D1B3
:103228000B4D0C4C00F026F8641BA4100026A64297
:1032380005D170BD55F8043B98470136EEE755F8BF
:10324800043B98470136F2E7CC320008CC3200083C
:10325800CC320008D03200080A44914200F1FF3312
:1032680000D1704710B511F8014B03F8014F914296
:10327800F9D110BDF8B500BFF8BC08BC9E46704730
:0C328800F8B500BFF8BC08BC9E467047BB
:103294000000000000000000010203040607080902
:1032A4002F53544D33322D424F4F542F6170702E93
:1032B400686578002F53544D33322D424F4F5400DC
:0832C40030D7FF7F010000007C
:0432CC00BD01000838
:0432D0009901000858
:1032D4000024F400FFFFFFFF0100000010000000C5
:0400000508000F459B
:00000001FF
